{
  "contractName": "HousingSociety",
  "abi": [
    {
      "inputs": [
        {
          "internalType": "address",
          "name": "_housingNFT",
          "type": "address"
        }
      ],
      "stateMutability": "payable",
      "type": "constructor"
    },
    {
      "anonymous": false,
      "inputs": [
        {
          "indexed": true,
          "internalType": "address",
          "name": "initiator",
          "type": "address"
        },
        {
          "indexed": false,
          "internalType": "string",
          "name": "message",
          "type": "string"
        },
        {
          "indexed": true,
          "internalType": "address",
          "name": "beneficiary",
          "type": "address"
        },
        {
          "indexed": false,
          "internalType": "uint256",
          "name": "amount",
          "type": "uint256"
        }
      ],
      "name": "Action",
      "type": "event"
    },
    {
      "inputs": [],
      "name": "daoBalance",
      "outputs": [
        {
          "internalType": "uint256",
          "name": "",
          "type": "uint256"
        }
      ],
      "stateMutability": "view",
      "type": "function"
    },
    {
      "inputs": [
        {
          "internalType": "string",
          "name": "title",
          "type": "string"
        },
        {
          "internalType": "string",
          "name": "description",
          "type": "string"
        },
        {
          "internalType": "address",
          "name": "beneficiary",
          "type": "address"
        },
        {
          "internalType": "uint256",
          "name": "amount",
          "type": "uint256"
        }
      ],
      "name": "createProposal",
      "outputs": [
        {
          "components": [
            {
              "internalType": "uint256",
              "name": "id",
              "type": "uint256"
            },
            {
              "internalType": "uint256",
              "name": "amount",
              "type": "uint256"
            },
            {
              "internalType": "uint256",
              "name": "duration",
              "type": "uint256"
            },
            {
              "internalType": "uint256",
              "name": "upvotes",
              "type": "uint256"
            },
            {
              "internalType": "uint256",
              "name": "downvotes",
              "type": "uint256"
            },
            {
              "internalType": "string",
              "name": "title",
              "type": "string"
            },
            {
              "internalType": "string",
              "name": "description",
              "type": "string"
            },
            {
              "internalType": "bool",
              "name": "passed",
              "type": "bool"
            },
            {
              "internalType": "bool",
              "name": "paid",
              "type": "bool"
            },
            {
              "internalType": "address payable",
              "name": "beneficiary",
              "type": "address"
            },
            {
              "internalType": "address",
              "name": "proposer",
              "type": "address"
            },
            {
              "internalType": "address",
              "name": "executor",
              "type": "address"
            }
          ],
          "internalType": "struct HousingSociety.ProposalStruct",
          "name": "",
          "type": "tuple"
        }
      ],
      "stateMutability": "nonpayable",
      "type": "function"
    },
    {
      "inputs": [
        {
          "internalType": "uint256",
          "name": "proposalId",
          "type": "uint256"
        },
        {
          "internalType": "bool",
          "name": "choosen",
          "type": "bool"
        }
      ],
      "name": "performVote",
      "outputs": [
        {
          "components": [
            {
              "internalType": "address",
              "name": "voter",
              "type": "address"
            },
            {
              "internalType": "uint256",
              "name": "timestamp",
              "type": "uint256"
            },
            {
              "internalType": "bool",
              "name": "choosen",
              "type": "bool"
            }
          ],
          "internalType": "struct HousingSociety.VotedStruct",
          "name": "",
          "type": "tuple"
        }
      ],
      "stateMutability": "nonpayable",
      "type": "function"
    },
    {
      "inputs": [
        {
          "internalType": "uint256",
          "name": "proposalId",
          "type": "uint256"
        }
      ],
      "name": "payBeneficiary",
      "outputs": [
        {
          "internalType": "uint256",
          "name": "",
          "type": "uint256"
        }
      ],
      "stateMutability": "nonpayable",
      "type": "function"
    },
    {
      "inputs": [],
      "name": "payMaintenance",
      "outputs": [
        {
          "internalType": "uint256",
          "name": "",
          "type": "uint256"
        }
      ],
      "stateMutability": "payable",
      "type": "function"
    },
    {
      "inputs": [],
      "name": "getProposals",
      "outputs": [
        {
          "components": [
            {
              "internalType": "uint256",
              "name": "id",
              "type": "uint256"
            },
            {
              "internalType": "uint256",
              "name": "amount",
              "type": "uint256"
            },
            {
              "internalType": "uint256",
              "name": "duration",
              "type": "uint256"
            },
            {
              "internalType": "uint256",
              "name": "upvotes",
              "type": "uint256"
            },
            {
              "internalType": "uint256",
              "name": "downvotes",
              "type": "uint256"
            },
            {
              "internalType": "string",
              "name": "title",
              "type": "string"
            },
            {
              "internalType": "string",
              "name": "description",
              "type": "string"
            },
            {
              "internalType": "bool",
              "name": "passed",
              "type": "bool"
            },
            {
              "internalType": "bool",
              "name": "paid",
              "type": "bool"
            },
            {
              "internalType": "address payable",
              "name": "beneficiary",
              "type": "address"
            },
            {
              "internalType": "address",
              "name": "proposer",
              "type": "address"
            },
            {
              "internalType": "address",
              "name": "executor",
              "type": "address"
            }
          ],
          "internalType": "struct HousingSociety.ProposalStruct[]",
          "name": "props",
          "type": "tuple[]"
        }
      ],
      "stateMutability": "view",
      "type": "function"
    },
    {
      "inputs": [
        {
          "internalType": "uint256",
          "name": "proposalId",
          "type": "uint256"
        }
      ],
      "name": "getProposal",
      "outputs": [
        {
          "components": [
            {
              "internalType": "uint256",
              "name": "id",
              "type": "uint256"
            },
            {
              "internalType": "uint256",
              "name": "amount",
              "type": "uint256"
            },
            {
              "internalType": "uint256",
              "name": "duration",
              "type": "uint256"
            },
            {
              "internalType": "uint256",
              "name": "upvotes",
              "type": "uint256"
            },
            {
              "internalType": "uint256",
              "name": "downvotes",
              "type": "uint256"
            },
            {
              "internalType": "string",
              "name": "title",
              "type": "string"
            },
            {
              "internalType": "string",
              "name": "description",
              "type": "string"
            },
            {
              "internalType": "bool",
              "name": "passed",
              "type": "bool"
            },
            {
              "internalType": "bool",
              "name": "paid",
              "type": "bool"
            },
            {
              "internalType": "address payable",
              "name": "beneficiary",
              "type": "address"
            },
            {
              "internalType": "address",
              "name": "proposer",
              "type": "address"
            },
            {
              "internalType": "address",
              "name": "executor",
              "type": "address"
            }
          ],
          "internalType": "struct HousingSociety.ProposalStruct",
          "name": "",
          "type": "tuple"
        }
      ],
      "stateMutability": "view",
      "type": "function"
    },
    {
      "inputs": [
        {
          "internalType": "uint256",
          "name": "proposalId",
          "type": "uint256"
        }
      ],
      "name": "getVotesOf",
      "outputs": [
        {
          "components": [
            {
              "internalType": "address",
              "name": "voter",
              "type": "address"
            },
            {
              "internalType": "uint256",
              "name": "timestamp",
              "type": "uint256"
            },
            {
              "internalType": "bool",
              "name": "choosen",
              "type": "bool"
            }
          ],
          "internalType": "struct HousingSociety.VotedStruct[]",
          "name": "",
          "type": "tuple[]"
        }
      ],
      "stateMutability": "view",
      "type": "function"
    },
    {
      "inputs": [],
      "name": "getStakeholderVotes",
      "outputs": [
        {
          "internalType": "uint256[]",
          "name": "",
          "type": "uint256[]"
        }
      ],
      "stateMutability": "view",
      "type": "function"
    },
    {
      "inputs": [],
      "name": "getStakeholderBalance",
      "outputs": [
        {
          "internalType": "uint256",
          "name": "",
          "type": "uint256"
        }
      ],
      "stateMutability": "view",
      "type": "function"
    },
    {
      "inputs": [],
      "name": "isStakeholder",
      "outputs": [
        {
          "internalType": "bool",
          "name": "",
          "type": "bool"
        }
      ],
      "stateMutability": "view",
      "type": "function"
    }
  ],
  "bytecode": "0x60c0604052662386f26fc1000060809081525060b463ffffffff1660a09063ffffffff1681525060405162002f7438038062002f7483398181016040528101906200004b919062000105565b600160008190555080600760006101000a81548173ffffffffffffffffffffffffffffffffffffffff021916908373ffffffffffffffffffffffffffffffffffffffff1602179055505062000137565b600080fd5b600073ffffffffffffffffffffffffffffffffffffffff82169050919050565b6000620000cd82620000a0565b9050919050565b620000df81620000c0565b8114620000eb57600080fd5b50565b600081519050620000ff81620000d4565b92915050565b6000602082840312156200011e576200011d6200009b565b5b60006200012e84828501620000ee565b91505092915050565b60805160a051612e176200015d6000396000610dbe015260006106900152612e176000f3fe60806040526004361061009c5760003560e01c80637cdc2eb7116100645780637cdc2eb71461018f578063a22f1db7146101cc578063b31f111c146101f7578063bd97281614610234578063c02146ac1461025f578063c7f758a81461028a5761009c565b8063119c37c8146100a15780635bda544d146100de57806362564c48146100fc57806369a136dc146101275780636a80d84d14610164575b600080fd5b3480156100ad57600080fd5b506100c860048036038101906100c39190611d10565b6102c7565b6040516100d59190611d4c565b60405180910390f35b6100e661068c565b6040516100f39190611d4c565b60405180910390f35b34801561010857600080fd5b50610111610767565b60405161011e9190612059565b60405180910390f35b34801561013357600080fd5b5061014e60048036038101906101499190611d10565b610ab0565b60405161015b919061216c565b60405180910390f35b34801561017057600080fd5b50610179610b9d565b6040516101869190611d4c565b60405180910390f35b34801561019b57600080fd5b506101b660048036038101906101b1919061221f565b610be4565b6040516101c391906123d1565b60405180910390f35b3480156101d857600080fd5b506101e1611104565b6040516101ee91906124a2565b60405180910390f35b34801561020357600080fd5b5061021e600480360381019061021991906124f0565b611199565b60405161022b9190612572565b60405180910390f35b34801561024057600080fd5b5061024961159b565b6040516102569190611d4c565b60405180910390f35b34801561026b57600080fd5b506102746115a1565b604051610281919061259c565b60405180910390f35b34801561029657600080fd5b506102b160048036038101906102ac9190611d10565b6115ea565b6040516102be91906123d1565b60405180910390f35b600080600760009054906101000a900473ffffffffffffffffffffffffffffffffffffffff1673ffffffffffffffffffffffffffffffffffffffff1663eedc966a336040518263ffffffff1660e01b815260040161032591906125c6565b602060405180830381865afa158015610342573d6000803e3d6000fd5b505050506040513d601f19601f8201168201806040525081019061036691906125f6565b116103a6576040517f08c379a000000000000000000000000000000000000000000000000000000000815260040161039d90612680565b60405180910390fd5b6103ae6118a6565b60006003600084815260200190815260200160002090503373ffffffffffffffffffffffffffffffffffffffff168160080160009054906101000a900473ffffffffffffffffffffffffffffffffffffffff1673ffffffffffffffffffffffffffffffffffffffff1614610457576040517f08c379a000000000000000000000000000000000000000000000000000000000815260040161044e906126ec565b60405180910390fd5b806001015460025410156104a0576040517f08c379a000000000000000000000000000000000000000000000000000000000815260040161049790612758565b60405180910390fd5b8060070160019054906101000a900460ff16156104f2576040517f08c379a00000000000000000000000000000000000000000000000000000000081526004016104e9906127c4565b60405180910390fd5b806004015481600301541161053c576040517f08c379a000000000000000000000000000000000000000000000000000000000815260040161053390612830565b60405180910390fd5b61056e8160070160029054906101000a900473ffffffffffffffffffffffffffffffffffffffff1682600101546118f6565b5060018160070160016101000a81548160ff021916908315150217905550338160090160006101000a81548173ffffffffffffffffffffffffffffffffffffffff021916908373ffffffffffffffffffffffffffffffffffffffff1602179055508060010154600260008282546105e5919061287f565b925050819055508060070160029054906101000a900473ffffffffffffffffffffffffffffffffffffffff1673ffffffffffffffffffffffffffffffffffffffff163373ffffffffffffffffffffffffffffffffffffffff167f99dcfb11345f1ef39aa3ff817f53d6af6d75e319076e17e53979d8eed03ce20a836001015460405161067191906128ff565b60405180910390a36002549150506106876119ae565b919050565b60007f000000000000000000000000000000000000000000000000000000000000000034116106f0576040517f08c379a00000000000000000000000000000000000000000000000000000000081526004016106e790612979565b60405180910390fd5b34600660003373ffffffffffffffffffffffffffffffffffffffff1673ffffffffffffffffffffffffffffffffffffffff168152602001908152602001600020600082825461073f9190612999565b9250508190555034600260008282546107589190612999565b92505081905550600254905090565b606060015467ffffffffffffffff811115610785576107846129ef565b5b6040519080825280602002602001820160405280156107be57816020015b6107ab611b4d565b8152602001906001900390816107a35790505b50905060005b600154811015610aac576003600082815260200190815260200160002060405180610180016040529081600082015481526020016001820154815260200160028201548152602001600382015481526020016004820154815260200160058201805461082f90612a4d565b80601f016020809104026020016040519081016040528092919081815260200182805461085b90612a4d565b80156108a85780601f1061087d576101008083540402835291602001916108a8565b820191906000526020600020905b81548152906001019060200180831161088b57829003601f168201915b505050505081526020016006820180546108c190612a4d565b80601f01602080910402602001604051908101604052809291908181526020018280546108ed90612a4d565b801561093a5780601f1061090f5761010080835404028352916020019161093a565b820191906000526020600020905b81548152906001019060200180831161091d57829003601f168201915b505050505081526020016007820160009054906101000a900460ff161515151581526020016007820160019054906101000a900460ff161515151581526020016007820160029054906101000a900473ffffffffffffffffffffffffffffffffffffffff1673ffffffffffffffffffffffffffffffffffffffff1673ffffffffffffffffffffffffffffffffffffffff1681526020016008820160009054906101000a900473ffffffffffffffffffffffffffffffffffffffff1673ffffffffffffffffffffffffffffffffffffffff1673ffffffffffffffffffffffffffffffffffffffff1681526020016009820160009054906101000a900473ffffffffffffffffffffffffffffffffffffffff1673ffffffffffffffffffffffffffffffffffffffff1673ffffffffffffffffffffffffffffffffffffffff1681525050828281518110610a8e57610a8d612a7f565b5b60200260200101819052508080610aa490612aae565b9150506107c4565b5090565b606060056000838152602001908152602001600020805480602002602001604051908101604052809291908181526020016000905b82821015610b9257838290600052602060002090600302016040518060600160405290816000820160009054906101000a900473ffffffffffffffffffffffffffffffffffffffff1673ffffffffffffffffffffffffffffffffffffffff1673ffffffffffffffffffffffffffffffffffffffff168152602001600182015481526020016002820160009054906101000a900460ff16151515158152505081526020019060010190610ae5565b505050509050919050565b6000600660003373ffffffffffffffffffffffffffffffffffffffff1673ffffffffffffffffffffffffffffffffffffffff16815260200190815260200160002054905090565b610bec611b4d565b6000600760009054906101000a900473ffffffffffffffffffffffffffffffffffffffff1673ffffffffffffffffffffffffffffffffffffffff1663eedc966a336040518263ffffffff1660e01b8152600401610c4991906125c6565b602060405180830381865afa158015610c66573d6000803e3d6000fd5b505050506040513d601f19601f82011682018060405250810190610c8a91906125f6565b11610cca576040517f08c379a0000000000000000000000000000000000000000000000000000000008152600401610cc190612680565b60405180910390fd5b600060016000815480929190610cdf90612aae565b9190505590506000600360008381526020019081526020016000209050818160000181905550338160080160006101000a81548173ffffffffffffffffffffffffffffffffffffffff021916908373ffffffffffffffffffffffffffffffffffffffff1602179055508888826005019190610d5b929190611bf4565b508686826006019190610d6f929190611bf4565b50848160070160026101000a81548173ffffffffffffffffffffffffffffffffffffffff021916908373ffffffffffffffffffffffffffffffffffffffff1602179055508381600101819055507f000000000000000000000000000000000000000000000000000000000000000063ffffffff1642610dee9190612999565b81600201819055508473ffffffffffffffffffffffffffffffffffffffff163373ffffffffffffffffffffffffffffffffffffffff167f99dcfb11345f1ef39aa3ff817f53d6af6d75e319076e17e53979d8eed03ce20a86604051610e539190612b43565b60405180910390a380604051806101800160405290816000820154815260200160018201548152602001600282015481526020016003820154815260200160048201548152602001600582018054610eaa90612a4d565b80601f0160208091040260200160405190810160405280929190818152602001828054610ed690612a4d565b8015610f235780601f10610ef857610100808354040283529160200191610f23565b820191906000526020600020905b815481529060010190602001808311610f0657829003601f168201915b50505050508152602001600682018054610f3c90612a4d565b80601f0160208091040260200160405190810160405280929190818152602001828054610f6890612a4d565b8015610fb55780601f10610f8a57610100808354040283529160200191610fb5565b820191906000526020600020905b815481529060010190602001808311610f9857829003601f168201915b505050505081526020016007820160009054906101000a900460ff161515151581526020016007820160019054906101000a900460ff161515151581526020016007820160029054906101000a900473ffffffffffffffffffffffffffffffffffffffff1673ffffffffffffffffffffffffffffffffffffffff1673ffffffffffffffffffffffffffffffffffffffff1681526020016008820160009054906101000a900473ffffffffffffffffffffffffffffffffffffffff1673ffffffffffffffffffffffffffffffffffffffff1673ffffffffffffffffffffffffffffffffffffffff1681526020016009820160009054906101000a900473ffffffffffffffffffffffffffffffffffffffff1673ffffffffffffffffffffffffffffffffffffffff1673ffffffffffffffffffffffffffffffffffffffff1681525050925050509695505050505050565b6060600460003373ffffffffffffffffffffffffffffffffffffffff1673ffffffffffffffffffffffffffffffffffffffff16815260200190815260200160002080548060200260200160405190810160405280929190818152602001828054801561118f57602002820191906000526020600020905b81548152602001906001019080831161117b575b5050505050905090565b6111a1611c7a565b6000600760009054906101000a900473ffffffffffffffffffffffffffffffffffffffff1673ffffffffffffffffffffffffffffffffffffffff1663eedc966a336040518263ffffffff1660e01b81526004016111fe91906125c6565b602060405180830381865afa15801561121b573d6000803e3d6000fd5b505050506040513d601f19601f8201168201806040525081019061123f91906125f6565b1161127f576040517f08c379a000000000000000000000000000000000000000000000000000000000815260040161127690612680565b60405180910390fd5b60006003600085815260200190815260200160002090506000600760009054906101000a900473ffffffffffffffffffffffffffffffffffffffff1673ffffffffffffffffffffffffffffffffffffffff1663eedc966a336040518263ffffffff1660e01b81526004016112f391906125c6565b602060405180830381865afa158015611310573d6000803e3d6000fd5b505050506040513d601f19601f8201168201806040525081019061133491906125f6565b905061133f826119b8565b831561136557808260030160008282546113599190612999565b92505081905550611381565b808260040160008282546113799190612999565b925050819055505b600460003373ffffffffffffffffffffffffffffffffffffffff1673ffffffffffffffffffffffffffffffffffffffff16815260200190815260200160002082600001549080600181540180825580915050600190039060005260206000200160009091909190915055600560008360000154815260200190815260200160002060405180606001604052803373ffffffffffffffffffffffffffffffffffffffff168152602001428152602001861515815250908060018154018082558091505060019003906000526020600020906003020160009091909190915060008201518160000160006101000a81548173ffffffffffffffffffffffffffffffffffffffff021916908373ffffffffffffffffffffffffffffffffffffffff1602179055506020820151816001015560408201518160020160006101000a81548160ff02191690831515021790555050508160070160029054906101000a900473ffffffffffffffffffffffffffffffffffffffff1673ffffffffffffffffffffffffffffffffffffffff163373ffffffffffffffffffffffffffffffffffffffff167f99dcfb11345f1ef39aa3ff817f53d6af6d75e319076e17e53979d8eed03ce20a84600101546040516115569190612bbd565b60405180910390a360405180606001604052803373ffffffffffffffffffffffffffffffffffffffff1681526020014281526020018515158152509250505092915050565b60025481565b600080600660003373ffffffffffffffffffffffffffffffffffffffff1673ffffffffffffffffffffffffffffffffffffffff1681526020019081526020016000205411905090565b6115f2611b4d565b6003600083815260200190815260200160002060405180610180016040529081600082015481526020016001820154815260200160028201548152602001600382015481526020016004820154815260200160058201805461165390612a4d565b80601f016020809104026020016040519081016040528092919081815260200182805461167f90612a4d565b80156116cc5780601f106116a1576101008083540402835291602001916116cc565b820191906000526020600020905b8154815290600101906020018083116116af57829003601f168201915b505050505081526020016006820180546116e590612a4d565b80601f016020809104026020016040519081016040528092919081815260200182805461171190612a4d565b801561175e5780601f106117335761010080835404028352916020019161175e565b820191906000526020600020905b81548152906001019060200180831161174157829003601f168201915b505050505081526020016007820160009054906101000a900460ff161515151581526020016007820160019054906101000a900460ff161515151581526020016007820160029054906101000a900473ffffffffffffffffffffffffffffffffffffffff1673ffffffffffffffffffffffffffffffffffffffff1673ffffffffffffffffffffffffffffffffffffffff1681526020016008820160009054906101000a900473ffffffffffffffffffffffffffffffffffffffff1673ffffffffffffffffffffffffffffffffffffffff1673ffffffffffffffffffffffffffffffffffffffff1681526020016009820160009054906101000a900473ffffffffffffffffffffffffffffffffffffffff1673ffffffffffffffffffffffffffffffffffffffff1673ffffffffffffffffffffffffffffffffffffffff16815250509050919050565b600260005414156118ec576040517f08c379a00000000000000000000000000000000000000000000000000000000081526004016118e390612c37565b60405180910390fd5b6002600081905550565b6000808373ffffffffffffffffffffffffffffffffffffffff168360405161191d90612c88565b60006040518083038185875af1925050503d806000811461195a576040519150601f19603f3d011682016040523d82523d6000602084013e61195f565b606091505b50509050806119a3576040517f08c379a000000000000000000000000000000000000000000000000000000000815260040161199a90612ce9565b60405180910390fd5b600191505092915050565b6001600081905550565b8060070160009054906101000a900460ff16806119d9575042816002015411155b15611a365760018160070160006101000a81548160ff0219169083151502179055506040517f08c379a0000000000000000000000000000000000000000000000000000000008152600401611a2d90612d55565b60405180910390fd5b6000600460003373ffffffffffffffffffffffffffffffffffffffff1673ffffffffffffffffffffffffffffffffffffffff168152602001908152602001600020805480602002602001604051908101604052809291908181526020018280548015611ac157602002820191906000526020600020905b815481526020019060010190808311611aad575b5050505050905060005b8151811015611b4857818181518110611ae757611ae6612a7f565b5b602002602001015183600001541415611b35576040517f08c379a0000000000000000000000000000000000000000000000000000000008152600401611b2c90612dc1565b60405180910390fd5b8080611b4090612aae565b915050611acb565b505050565b60405180610180016040528060008152602001600081526020016000815260200160008152602001600081526020016060815260200160608152602001600015158152602001600015158152602001600073ffffffffffffffffffffffffffffffffffffffff168152602001600073ffffffffffffffffffffffffffffffffffffffff168152602001600073ffffffffffffffffffffffffffffffffffffffff1681525090565b828054611c0090612a4d565b90600052602060002090601f016020900481019282611c225760008555611c69565b82601f10611c3b57803560ff1916838001178555611c69565b82800160010185558215611c69579182015b82811115611c68578235825591602001919060010190611c4d565b5b509050611c769190611cb3565b5090565b6040518060600160405280600073ffffffffffffffffffffffffffffffffffffffff168152602001600081526020016000151581525090565b5b80821115611ccc576000816000905550600101611cb4565b5090565b600080fd5b600080fd5b6000819050919050565b611ced81611cda565b8114611cf857600080fd5b50565b600081359050611d0a81611ce4565b92915050565b600060208284031215611d2657611d25611cd0565b5b6000611d3484828501611cfb565b91505092915050565b611d4681611cda565b82525050565b6000602082019050611d616000830184611d3d565b92915050565b600081519050919050565b600082825260208201905092915050565b6000819050602082019050919050565b611d9c81611cda565b82525050565b600081519050919050565b600082825260208201905092915050565b60005b83811015611ddc578082015181840152602081019050611dc1565b83811115611deb576000848401525b50505050565b6000601f19601f8301169050919050565b6000611e0d82611da2565b611e178185611dad565b9350611e27818560208601611dbe565b611e3081611df1565b840191505092915050565b60008115159050919050565b611e5081611e3b565b82525050565b600073ffffffffffffffffffffffffffffffffffffffff82169050919050565b6000611e8182611e56565b9050919050565b611e9181611e76565b82525050565b6000611ea282611e56565b9050919050565b611eb281611e97565b82525050565b600061018083016000830151611ed16000860182611d93565b506020830151611ee46020860182611d93565b506040830151611ef76040860182611d93565b506060830151611f0a6060860182611d93565b506080830151611f1d6080860182611d93565b5060a083015184820360a0860152611f358282611e02565b91505060c083015184820360c0860152611f4f8282611e02565b91505060e0830151611f6460e0860182611e47565b50610100830151611f79610100860182611e47565b50610120830151611f8e610120860182611e88565b50610140830151611fa3610140860182611ea9565b50610160830151611fb8610160860182611ea9565b508091505092915050565b6000611fcf8383611eb8565b905092915050565b6000602082019050919050565b6000611fef82611d67565b611ff98185611d72565b93508360208202850161200b85611d83565b8060005b8581101561204757848403895281516120288582611fc3565b945061203383611fd7565b925060208a0199505060018101905061200f565b50829750879550505050505092915050565b600060208201905081810360008301526120738184611fe4565b905092915050565b600081519050919050565b600082825260208201905092915050565b6000819050602082019050919050565b6060820160008201516120bd6000850182611ea9565b5060208201516120d06020850182611d93565b5060408201516120e36040850182611e47565b50505050565b60006120f583836120a7565b60608301905092915050565b6000602082019050919050565b60006121198261207b565b6121238185612086565b935061212e83612097565b8060005b8381101561215f57815161214688826120e9565b975061215183612101565b925050600181019050612132565b5085935050505092915050565b60006020820190508181036000830152612186818461210e565b905092915050565b600080fd5b600080fd5b600080fd5b60008083601f8401126121b3576121b261218e565b5b8235905067ffffffffffffffff8111156121d0576121cf612193565b5b6020830191508360018202830111156121ec576121eb612198565b5b9250929050565b6121fc81611e97565b811461220757600080fd5b50565b600081359050612219816121f3565b92915050565b6000806000806000806080878903121561223c5761223b611cd0565b5b600087013567ffffffffffffffff81111561225a57612259611cd5565b5b61226689828a0161219d565b9650965050602087013567ffffffffffffffff81111561228957612288611cd5565b5b61229589828a0161219d565b945094505060406122a889828a0161220a565b92505060606122b989828a01611cfb565b9150509295509295509295565b6000610180830160008301516122df6000860182611d93565b5060208301516122f26020860182611d93565b5060408301516123056040860182611d93565b5060608301516123186060860182611d93565b50608083015161232b6080860182611d93565b5060a083015184820360a08601526123438282611e02565b91505060c083015184820360c086015261235d8282611e02565b91505060e083015161237260e0860182611e47565b50610100830151612387610100860182611e47565b5061012083015161239c610120860182611e88565b506101408301516123b1610140860182611ea9565b506101608301516123c6610160860182611ea9565b508091505092915050565b600060208201905081810360008301526123eb81846122c6565b905092915050565b600081519050919050565b600082825260208201905092915050565b6000819050602082019050919050565b600061242b8383611d93565b60208301905092915050565b6000602082019050919050565b600061244f826123f3565b61245981856123fe565b93506124648361240f565b8060005b8381101561249557815161247c888261241f565b975061248783612437565b925050600181019050612468565b5085935050505092915050565b600060208201905081810360008301526124bc8184612444565b905092915050565b6124cd81611e3b565b81146124d857600080fd5b50565b6000813590506124ea816124c4565b92915050565b6000806040838503121561250757612506611cd0565b5b600061251585828601611cfb565b9250506020612526858286016124db565b9150509250929050565b6060820160008201516125466000850182611ea9565b5060208201516125596020850182611d93565b50604082015161256c6040850182611e47565b50505050565b60006060820190506125876000830184612530565b92915050565b61259681611e3b565b82525050565b60006020820190506125b1600083018461258d565b92915050565b6125c081611e97565b82525050565b60006020820190506125db60008301846125b7565b92915050565b6000815190506125f081611ce4565b92915050565b60006020828403121561260c5761260b611cd0565b5b600061261a848285016125e1565b91505092915050565b600082825260208201905092915050565b7f596f7520646f206e6f74206861766520486f7573652100000000000000000000600082015250565b600061266a601683612623565b915061267582612634565b602082019050919050565b600060208201905081810360008301526126998161265d565b9050919050565b7f596f7520617265206e6f742070726f706f736572210000000000000000000000600082015250565b60006126d6601583612623565b91506126e1826126a0565b602082019050919050565b60006020820190508181036000830152612705816126c9565b9050919050565b7f496e73756666696369656e742066756e64000000000000000000000000000000600082015250565b6000612742601183612623565b915061274d8261270c565b602082019050919050565b6000602082019050818103600083015261277181612735565b9050919050565b7f5061796d656e742073656e74206265666f726500000000000000000000000000600082015250565b60006127ae601383612623565b91506127b982612778565b602082019050919050565b600060208201905081810360008301526127dd816127a1565b9050919050565b7f496e73756666696369656e7420766f7465730000000000000000000000000000600082015250565b600061281a601283612623565b9150612825826127e4565b602082019050919050565b600060208201905081810360008301526128498161280d565b9050919050565b7f4e487b7100000000000000000000000000000000000000000000000000000000600052601160045260246000fd5b600061288a82611cda565b915061289583611cda565b9250828210156128a8576128a7612850565b5b828203905092915050565b7f5041594d454e54205452414e5346455245440000000000000000000000000000600082015250565b60006128e9601283612623565b91506128f4826128b3565b602082019050919050565b60006040820190508181036000830152612918816128dc565b90506129276020830184611d3d565b92915050565b7f666565732063616e6e6f74206265207a65726f21000000000000000000000000600082015250565b6000612963601483612623565b915061296e8261292d565b602082019050919050565b6000602082019050818103600083015261299281612956565b9050919050565b60006129a482611cda565b91506129af83611cda565b9250827fffffffffffffffffffffffffffffffffffffffffffffffffffffffffffffffff038211156129e4576129e3612850565b5b828201905092915050565b7f4e487b7100000000000000000000000000000000000000000000000000000000600052604160045260246000fd5b7f4e487b7100000000000000000000000000000000000000000000000000000000600052602260045260246000fd5b60006002820490506001821680612a6557607f821691505b60208210811415612a7957612a78612a1e565b5b50919050565b7f4e487b7100000000000000000000000000000000000000000000000000000000600052603260045260246000fd5b6000612ab982611cda565b91507fffffffffffffffffffffffffffffffffffffffffffffffffffffffffffffffff821415612aec57612aeb612850565b5b600182019050919050565b7f50524f504f53414c205241495345440000000000000000000000000000000000600082015250565b6000612b2d600f83612623565b9150612b3882612af7565b602082019050919050565b60006040820190508181036000830152612b5c81612b20565b9050612b6b6020830184611d3d565b92915050565b7f50524f504f53414c20564f544500000000000000000000000000000000000000600082015250565b6000612ba7600d83612623565b9150612bb282612b71565b602082019050919050565b60006040820190508181036000830152612bd681612b9a565b9050612be56020830184611d3d565b92915050565b7f5265656e7472616e637947756172643a207265656e7472616e742063616c6c00600082015250565b6000612c21601f83612623565b9150612c2c82612beb565b602082019050919050565b60006020820190508181036000830152612c5081612c14565b9050919050565b600081905092915050565b50565b6000612c72600083612c57565b9150612c7d82612c62565b600082019050919050565b6000612c9382612c65565b9150819050919050565b7f5061796d656e74206661696c6564000000000000000000000000000000000000600082015250565b6000612cd3600e83612623565b9150612cde82612c9d565b602082019050919050565b60006020820190508181036000830152612d0281612cc6565b9050919050565b7f50726f706f73616c206475726174696f6e206578706972656400000000000000600082015250565b6000612d3f601983612623565b9150612d4a82612d09565b602082019050919050565b60006020820190508181036000830152612d6e81612d32565b9050919050565b7f446f75626c6520766f74696e67206e6f7420616c6c6f77656400000000000000600082015250565b6000612dab601983612623565b9150612db682612d75565b602082019050919050565b60006020820190508181036000830152612dda81612d9e565b905091905056fea2646970667358221220f6960c0c5d19c25672fb58efb93c1f1a6545f97c4d654e0564ad0ae1c563a9f164736f6c634300080b0033",
  "immutableReferences": {
    "69": [
      {
        "length": 32,
        "start": 1680
      }
    ],
    "72": [
      {
        "length": 32,
        "start": 3518
      }
    ]
  },
  "source": "// SPDX-License-Identifier: MIT\r\npragma solidity ^0.8.7;\r\n\r\nimport \"@openzeppelin/contracts/security/ReentrancyGuard.sol\";\r\n\r\ninterface IHousingNFT {\r\n    function tokenBalance(address account) external view returns (uint256);\r\n \r\n}\r\n\r\ncontract HousingSociety is ReentrancyGuard {\r\n    uint256 immutable MaintenanceAmount  = 0.01 ether;\r\n    // uint32 immutable MIN_VOTE_DURATION = 1 weeks;\r\n    uint32 immutable MIN_VOTE_DURATION = 3 minutes;\r\n    uint256 totalProposals;\r\n    uint256 public daoBalance;\r\n\r\n    mapping(uint256 => ProposalStruct) private raisedProposals;\r\n    mapping(address => uint256[]) private stakeholderVotes;\r\n    mapping(uint256 => VotedStruct[]) private votedOn;\r\n    mapping(address => uint256) private stakeholders;\r\n\r\n    struct ProposalStruct {\r\n        uint256 id;\r\n        uint256 amount;\r\n        uint256 duration;\r\n        uint256 upvotes;\r\n        uint256 downvotes;\r\n        string title;\r\n        string description;\r\n        bool passed;\r\n        bool paid;\r\n        address payable beneficiary;\r\n        address proposer;\r\n        address executor;\r\n    }\r\n\r\n    struct VotedStruct {\r\n        address voter;\r\n        uint256 timestamp;\r\n        bool choosen;\r\n    }\r\n\r\n    event Action(\r\n        address indexed initiator,\r\n        // bytes32 role,\r\n        string message,\r\n        address indexed beneficiary,\r\n        uint256 amount\r\n    );\r\n\r\n    IHousingNFT housingNFT;\r\n\r\n    constructor(address _housingNFT) payable {\r\n        housingNFT = IHousingNFT(_housingNFT);\r\n    }\r\n\r\n    modifier nftHolder () {\r\n        require(housingNFT.tokenBalance(msg.sender) > 0, \"You do not have House!\");\r\n        _;\r\n    }\r\n\r\n\r\n    function createProposal(\r\n        string calldata title,\r\n        string calldata description,\r\n        address beneficiary,\r\n        uint256 amount\r\n    )\r\n        \r\n        external\r\n        nftHolder\r\n        returns (ProposalStruct memory)\r\n    {\r\n        uint256 proposalId = totalProposals++;\r\n        ProposalStruct storage proposal = raisedProposals[proposalId];\r\n\r\n        proposal.id = proposalId;\r\n        proposal.proposer = payable(msg.sender);\r\n        proposal.title = title;\r\n        proposal.description = description;\r\n        proposal.beneficiary = payable(beneficiary);\r\n        proposal.amount = amount;\r\n        proposal.duration = block.timestamp + MIN_VOTE_DURATION;\r\n\r\n        emit Action(\r\n            msg.sender,\r\n            \"PROPOSAL RAISED\",\r\n            beneficiary,\r\n            amount\r\n        );\r\n\r\n        return proposal;\r\n    }\r\n\r\n    function performVote(\r\n        uint256 proposalId,\r\n        bool choosen\r\n    )\r\n        external\r\n        nftHolder\r\n        returns (VotedStruct memory)\r\n    {\r\n        ProposalStruct storage proposal = raisedProposals[proposalId];\r\n        uint256 voterNFTBalance = housingNFT.tokenBalance(msg.sender);\r\n        handleVoting(proposal);\r\n\r\n        if (choosen) \r\n        {proposal.upvotes += voterNFTBalance;}\r\n        else proposal.downvotes += voterNFTBalance;\r\n\r\n        stakeholderVotes[msg.sender].push(proposal.id);\r\n\r\n        votedOn[proposal.id].push(\r\n            VotedStruct(msg.sender, block.timestamp, choosen)\r\n        );\r\n\r\n        emit Action(\r\n            msg.sender,\r\n            \"PROPOSAL VOTE\",\r\n            proposal.beneficiary,\r\n            proposal.amount\r\n        );\r\n\r\n        return VotedStruct(msg.sender, block.timestamp, choosen);\r\n    }\r\n\r\n    function handleVoting(ProposalStruct storage proposal) private {\r\n        if (proposal.passed || proposal.duration <= block.timestamp) {\r\n            proposal.passed = true;\r\n            revert(\"Proposal duration expired\");\r\n        }\r\n\r\n        uint256[] memory tempVotes = stakeholderVotes[msg.sender];\r\n        for (uint256 votes = 0; votes < tempVotes.length; votes++) {\r\n            if (proposal.id == tempVotes[votes])\r\n                revert(\"Double voting not allowed\");\r\n        }\r\n    }\r\n\r\n    function payBeneficiary(\r\n        uint256 proposalId\r\n    )\r\n        external\r\n        nftHolder\r\n        nonReentrant\r\n        returns (uint256)\r\n    {\r\n        ProposalStruct storage proposal = raisedProposals[proposalId];\r\n        require(proposal.proposer == msg.sender, \"You are not proposer!\");\r\n        require(daoBalance >= proposal.amount, \"Insufficient fund\");\r\n\r\n        if (proposal.paid) revert(\"Payment sent before\");\r\n\r\n        if (proposal.upvotes <= proposal.downvotes)\r\n            revert(\"Insufficient votes\");\r\n\r\n        payTo(proposal.beneficiary, proposal.amount);\r\n\r\n        proposal.paid = true;\r\n        proposal.executor = msg.sender;\r\n        daoBalance -= proposal.amount;\r\n\r\n        emit Action(\r\n            msg.sender,\r\n            \"PAYMENT TRANSFERED\",\r\n            proposal.beneficiary,\r\n            proposal.amount\r\n        );\r\n\r\n        return daoBalance;\r\n    }\r\n\r\n    function payMaintenance() external payable returns (uint256)\r\n    {\r\n        require(msg.value > MaintenanceAmount, \"fees cannot be zero!\");\r\n        stakeholders[msg.sender] += msg.value;\r\n        daoBalance+= msg.value;\r\n\r\n        return daoBalance;\r\n\r\n    }\r\n\r\n    function getProposals()\r\n        external\r\n        view\r\n        returns (ProposalStruct[] memory props)\r\n    {\r\n        props = new ProposalStruct[](totalProposals);\r\n\r\n        for (uint256 i = 0; i < totalProposals; i++) {\r\n            props[i] = raisedProposals[i];\r\n        }\r\n    }\r\n\r\n    function getProposal(\r\n        uint256 proposalId\r\n    ) external view returns (ProposalStruct memory) {\r\n        return raisedProposals[proposalId];\r\n    }\r\n\r\n    function getVotesOf(\r\n        uint256 proposalId\r\n    ) external view returns (VotedStruct[] memory) {\r\n        return votedOn[proposalId];\r\n    }\r\n\r\n    function getStakeholderVotes()\r\n        external\r\n        view\r\n        // stakeholderOnly(\"Unauthorized: not a stakeholder\")\r\n        returns (uint256[] memory)\r\n    {\r\n        return stakeholderVotes[msg.sender];\r\n    }\r\n\r\n    function getStakeholderBalance()\r\n        external\r\n        view\r\n        // stakeholderOnly(\"Unauthorized: not a stakeholder\")\r\n        returns (uint256)\r\n    {\r\n        return stakeholders[msg.sender];\r\n    }\r\n\r\n    function isStakeholder() external view returns (bool) {\r\n        return stakeholders[msg.sender] > 0;\r\n    }\r\n\r\n\r\n    function payTo(address to, uint256 amount) internal returns (bool) {\r\n        (bool success, ) = payable(to).call{value: amount}(\"\");\r\n        require(success, \"Payment failed\");\r\n        return true;\r\n    }\r\n}\r\n",
  "sourcePath": "D:\\dominionDAO\\src\\contracts\\HousingSociety.sol",
  "compiler": {
    "name": "solc",
    "version": "0.8.11+commit.d7f03943.Emscripten.clang"
  },
  "schemaVersion": "3.4.13",
  "updatedAt": "2023-04-29T20:13:50.002Z",
  "devdoc": {
    "kind": "dev",
    "methods": {},
    "version": 1
  },
  "userdoc": {
    "kind": "user",
    "methods": {},
    "version": 1
  }
}