{
  "contractName": "nft",
  "abi": [
    {
      "inputs": [
        {
          "internalType": "string",
          "name": "_name",
          "type": "string"
        },
        {
          "internalType": "string",
          "name": "_symbol",
          "type": "string"
        },
        {
          "internalType": "address",
          "name": "_builder",
          "type": "address"
        }
      ],
      "stateMutability": "nonpayable",
      "type": "constructor"
    },
    {
      "anonymous": false,
      "inputs": [
        {
          "indexed": true,
          "internalType": "address",
          "name": "owner",
          "type": "address"
        },
        {
          "indexed": true,
          "internalType": "address",
          "name": "approved",
          "type": "address"
        },
        {
          "indexed": true,
          "internalType": "uint256",
          "name": "tokenId",
          "type": "uint256"
        }
      ],
      "name": "Approval",
      "type": "event"
    },
    {
      "anonymous": false,
      "inputs": [
        {
          "indexed": true,
          "internalType": "address",
          "name": "owner",
          "type": "address"
        },
        {
          "indexed": true,
          "internalType": "address",
          "name": "operator",
          "type": "address"
        },
        {
          "indexed": false,
          "internalType": "bool",
          "name": "approved",
          "type": "bool"
        }
      ],
      "name": "ApprovalForAll",
      "type": "event"
    },
    {
      "anonymous": false,
      "inputs": [
        {
          "indexed": true,
          "internalType": "address",
          "name": "previousOwner",
          "type": "address"
        },
        {
          "indexed": true,
          "internalType": "address",
          "name": "newOwner",
          "type": "address"
        }
      ],
      "name": "OwnershipTransferred",
      "type": "event"
    },
    {
      "anonymous": false,
      "inputs": [
        {
          "indexed": false,
          "internalType": "uint256",
          "name": "id",
          "type": "uint256"
        },
        {
          "indexed": true,
          "internalType": "address",
          "name": "owner",
          "type": "address"
        },
        {
          "indexed": false,
          "internalType": "uint256",
          "name": "cost",
          "type": "uint256"
        },
        {
          "indexed": false,
          "internalType": "string",
          "name": "metadataURI",
          "type": "string"
        },
        {
          "indexed": false,
          "internalType": "uint256",
          "name": "timestamp",
          "type": "uint256"
        }
      ],
      "name": "Sale",
      "type": "event"
    },
    {
      "anonymous": false,
      "inputs": [
        {
          "indexed": true,
          "internalType": "address",
          "name": "from",
          "type": "address"
        },
        {
          "indexed": true,
          "internalType": "address",
          "name": "to",
          "type": "address"
        },
        {
          "indexed": true,
          "internalType": "uint256",
          "name": "tokenId",
          "type": "uint256"
        }
      ],
      "name": "Transfer",
      "type": "event"
    },
    {
      "inputs": [
        {
          "internalType": "address",
          "name": "to",
          "type": "address"
        },
        {
          "internalType": "uint256",
          "name": "tokenId",
          "type": "uint256"
        }
      ],
      "name": "approve",
      "outputs": [],
      "stateMutability": "nonpayable",
      "type": "function"
    },
    {
      "inputs": [
        {
          "internalType": "address",
          "name": "owner",
          "type": "address"
        }
      ],
      "name": "balanceOf",
      "outputs": [
        {
          "internalType": "uint256",
          "name": "",
          "type": "uint256"
        }
      ],
      "stateMutability": "view",
      "type": "function"
    },
    {
      "inputs": [],
      "name": "builder",
      "outputs": [
        {
          "internalType": "address",
          "name": "",
          "type": "address"
        }
      ],
      "stateMutability": "view",
      "type": "function"
    },
    {
      "inputs": [],
      "name": "cost",
      "outputs": [
        {
          "internalType": "uint256",
          "name": "",
          "type": "uint256"
        }
      ],
      "stateMutability": "view",
      "type": "function"
    },
    {
      "inputs": [
        {
          "internalType": "uint256",
          "name": "tokenId",
          "type": "uint256"
        }
      ],
      "name": "getApproved",
      "outputs": [
        {
          "internalType": "address",
          "name": "",
          "type": "address"
        }
      ],
      "stateMutability": "view",
      "type": "function"
    },
    {
      "inputs": [
        {
          "internalType": "uint256",
          "name": "",
          "type": "uint256"
        }
      ],
      "name": "holderOf",
      "outputs": [
        {
          "internalType": "address",
          "name": "",
          "type": "address"
        }
      ],
      "stateMutability": "view",
      "type": "function"
    },
    {
      "inputs": [
        {
          "internalType": "address",
          "name": "owner",
          "type": "address"
        },
        {
          "internalType": "address",
          "name": "operator",
          "type": "address"
        }
      ],
      "name": "isApprovedForAll",
      "outputs": [
        {
          "internalType": "bool",
          "name": "",
          "type": "bool"
        }
      ],
      "stateMutability": "view",
      "type": "function"
    },
    {
      "inputs": [],
      "name": "name",
      "outputs": [
        {
          "internalType": "string",
          "name": "",
          "type": "string"
        }
      ],
      "stateMutability": "view",
      "type": "function"
    },
    {
      "inputs": [],
      "name": "owner",
      "outputs": [
        {
          "internalType": "address",
          "name": "",
          "type": "address"
        }
      ],
      "stateMutability": "view",
      "type": "function"
    },
    {
      "inputs": [
        {
          "internalType": "uint256",
          "name": "tokenId",
          "type": "uint256"
        }
      ],
      "name": "ownerOf",
      "outputs": [
        {
          "internalType": "address",
          "name": "",
          "type": "address"
        }
      ],
      "stateMutability": "view",
      "type": "function"
    },
    {
      "inputs": [],
      "name": "renounceOwnership",
      "outputs": [],
      "stateMutability": "nonpayable",
      "type": "function"
    },
    {
      "inputs": [
        {
          "internalType": "address",
          "name": "from",
          "type": "address"
        },
        {
          "internalType": "address",
          "name": "to",
          "type": "address"
        },
        {
          "internalType": "uint256",
          "name": "tokenId",
          "type": "uint256"
        }
      ],
      "name": "safeTransferFrom",
      "outputs": [],
      "stateMutability": "nonpayable",
      "type": "function"
    },
    {
      "inputs": [
        {
          "internalType": "address",
          "name": "from",
          "type": "address"
        },
        {
          "internalType": "address",
          "name": "to",
          "type": "address"
        },
        {
          "internalType": "uint256",
          "name": "tokenId",
          "type": "uint256"
        },
        {
          "internalType": "bytes",
          "name": "data",
          "type": "bytes"
        }
      ],
      "name": "safeTransferFrom",
      "outputs": [],
      "stateMutability": "nonpayable",
      "type": "function"
    },
    {
      "inputs": [
        {
          "internalType": "address",
          "name": "operator",
          "type": "address"
        },
        {
          "internalType": "bool",
          "name": "approved",
          "type": "bool"
        }
      ],
      "name": "setApprovalForAll",
      "outputs": [],
      "stateMutability": "nonpayable",
      "type": "function"
    },
    {
      "inputs": [],
      "name": "supply",
      "outputs": [
        {
          "internalType": "uint256",
          "name": "",
          "type": "uint256"
        }
      ],
      "stateMutability": "view",
      "type": "function"
    },
    {
      "inputs": [
        {
          "internalType": "bytes4",
          "name": "interfaceId",
          "type": "bytes4"
        }
      ],
      "name": "supportsInterface",
      "outputs": [
        {
          "internalType": "bool",
          "name": "",
          "type": "bool"
        }
      ],
      "stateMutability": "view",
      "type": "function"
    },
    {
      "inputs": [],
      "name": "symbol",
      "outputs": [
        {
          "internalType": "string",
          "name": "",
          "type": "string"
        }
      ],
      "stateMutability": "view",
      "type": "function"
    },
    {
      "inputs": [
        {
          "internalType": "uint256",
          "name": "index",
          "type": "uint256"
        }
      ],
      "name": "tokenByIndex",
      "outputs": [
        {
          "internalType": "uint256",
          "name": "",
          "type": "uint256"
        }
      ],
      "stateMutability": "view",
      "type": "function"
    },
    {
      "inputs": [
        {
          "internalType": "address",
          "name": "owner",
          "type": "address"
        },
        {
          "internalType": "uint256",
          "name": "index",
          "type": "uint256"
        }
      ],
      "name": "tokenOfOwnerByIndex",
      "outputs": [
        {
          "internalType": "uint256",
          "name": "",
          "type": "uint256"
        }
      ],
      "stateMutability": "view",
      "type": "function"
    },
    {
      "inputs": [
        {
          "internalType": "uint256",
          "name": "tokenId",
          "type": "uint256"
        }
      ],
      "name": "tokenURI",
      "outputs": [
        {
          "internalType": "string",
          "name": "",
          "type": "string"
        }
      ],
      "stateMutability": "view",
      "type": "function"
    },
    {
      "inputs": [],
      "name": "totalSupply",
      "outputs": [
        {
          "internalType": "uint256",
          "name": "",
          "type": "uint256"
        }
      ],
      "stateMutability": "view",
      "type": "function"
    },
    {
      "inputs": [],
      "name": "totalTx",
      "outputs": [
        {
          "internalType": "uint256",
          "name": "",
          "type": "uint256"
        }
      ],
      "stateMutability": "view",
      "type": "function"
    },
    {
      "inputs": [
        {
          "internalType": "address",
          "name": "from",
          "type": "address"
        },
        {
          "internalType": "address",
          "name": "to",
          "type": "address"
        },
        {
          "internalType": "uint256",
          "name": "tokenId",
          "type": "uint256"
        }
      ],
      "name": "transferFrom",
      "outputs": [],
      "stateMutability": "nonpayable",
      "type": "function"
    },
    {
      "inputs": [
        {
          "internalType": "address",
          "name": "newOwner",
          "type": "address"
        }
      ],
      "name": "transferOwnership",
      "outputs": [],
      "stateMutability": "nonpayable",
      "type": "function"
    },
    {
      "inputs": [
        {
          "internalType": "string",
          "name": "title",
          "type": "string"
        },
        {
          "internalType": "string",
          "name": "description",
          "type": "string"
        },
        {
          "internalType": "string",
          "name": "metadataURI",
          "type": "string"
        },
        {
          "internalType": "uint256",
          "name": "salesPrice",
          "type": "uint256"
        }
      ],
      "name": "payToMint",
      "outputs": [],
      "stateMutability": "payable",
      "type": "function"
    },
    {
      "inputs": [
        {
          "internalType": "uint256",
          "name": "id",
          "type": "uint256"
        }
      ],
      "name": "payToBuy",
      "outputs": [],
      "stateMutability": "payable",
      "type": "function"
    },
    {
      "inputs": [
        {
          "internalType": "uint256",
          "name": "id",
          "type": "uint256"
        },
        {
          "internalType": "uint256",
          "name": "newPrice",
          "type": "uint256"
        }
      ],
      "name": "changePrice",
      "outputs": [
        {
          "internalType": "bool",
          "name": "",
          "type": "bool"
        }
      ],
      "stateMutability": "nonpayable",
      "type": "function"
    },
    {
      "inputs": [
        {
          "internalType": "address",
          "name": "account",
          "type": "address"
        }
      ],
      "name": "tokenBalance",
      "outputs": [
        {
          "internalType": "uint256",
          "name": "",
          "type": "uint256"
        }
      ],
      "stateMutability": "view",
      "type": "function"
    },
    {
      "inputs": [],
      "name": "getAllNFTs",
      "outputs": [
        {
          "components": [
            {
              "internalType": "uint256",
              "name": "id",
              "type": "uint256"
            },
            {
              "internalType": "address",
              "name": "owner",
              "type": "address"
            },
            {
              "internalType": "uint256",
              "name": "cost",
              "type": "uint256"
            },
            {
              "internalType": "string",
              "name": "title",
              "type": "string"
            },
            {
              "internalType": "string",
              "name": "description",
              "type": "string"
            },
            {
              "internalType": "string",
              "name": "metadataURI",
              "type": "string"
            },
            {
              "internalType": "uint256",
              "name": "timestamp",
              "type": "uint256"
            },
            {
              "internalType": "bool",
              "name": "forSale",
              "type": "bool"
            }
          ],
          "internalType": "struct nft.TransactionStruct[]",
          "name": "",
          "type": "tuple[]"
        }
      ],
      "stateMutability": "view",
      "type": "function"
    },
    {
      "inputs": [
        {
          "internalType": "uint256",
          "name": "id",
          "type": "uint256"
        }
      ],
      "name": "getNFT",
      "outputs": [
        {
          "components": [
            {
              "internalType": "uint256",
              "name": "id",
              "type": "uint256"
            },
            {
              "internalType": "address",
              "name": "owner",
              "type": "address"
            },
            {
              "internalType": "uint256",
              "name": "cost",
              "type": "uint256"
            },
            {
              "internalType": "string",
              "name": "title",
              "type": "string"
            },
            {
              "internalType": "string",
              "name": "description",
              "type": "string"
            },
            {
              "internalType": "string",
              "name": "metadataURI",
              "type": "string"
            },
            {
              "internalType": "uint256",
              "name": "timestamp",
              "type": "uint256"
            },
            {
              "internalType": "bool",
              "name": "forSale",
              "type": "bool"
            }
          ],
          "internalType": "struct nft.TransactionStruct",
          "name": "",
          "type": "tuple"
        }
      ],
      "stateMutability": "view",
      "type": "function"
    },
    {
      "inputs": [],
      "name": "getAllTransactions",
      "outputs": [
        {
          "components": [
            {
              "internalType": "uint256",
              "name": "id",
              "type": "uint256"
            },
            {
              "internalType": "address",
              "name": "owner",
              "type": "address"
            },
            {
              "internalType": "uint256",
              "name": "cost",
              "type": "uint256"
            },
            {
              "internalType": "string",
              "name": "title",
              "type": "string"
            },
            {
              "internalType": "string",
              "name": "description",
              "type": "string"
            },
            {
              "internalType": "string",
              "name": "metadataURI",
              "type": "string"
            },
            {
              "internalType": "uint256",
              "name": "timestamp",
              "type": "uint256"
            },
            {
              "internalType": "bool",
              "name": "forSale",
              "type": "bool"
            }
          ],
          "internalType": "struct nft.TransactionStruct[]",
          "name": "",
          "type": "tuple[]"
        }
      ],
      "stateMutability": "view",
      "type": "function"
    },
    {
      "inputs": [
        {
          "internalType": "uint256",
          "name": "id",
          "type": "uint256"
        }
      ],
      "name": "getSaleStatus",
      "outputs": [
        {
          "internalType": "bool",
          "name": "",
          "type": "bool"
        }
      ],
      "stateMutability": "view",
      "type": "function"
    },
    {
      "inputs": [
        {
          "internalType": "uint256",
          "name": "id",
          "type": "uint256"
        }
      ],
      "name": "setSaleStatus",
      "outputs": [
        {
          "internalType": "bool",
          "name": "",
          "type": "bool"
        }
      ],
      "stateMutability": "nonpayable",
      "type": "function"
    }
  ],
  "bytecode": "0x60806040526000600e556000600f553480156200001b57600080fd5b5060405162005b6838038062005b68833981810160405281019062000041919062000461565b828281600090805190602001906200005b929190620001af565b50806001908051906020019062000074929190620001af565b505050620000976200008b620000e160201b60201c565b620000e960201b60201c565b80600d60006101000a81548173ffffffffffffffffffffffffffffffffffffffff021916908373ffffffffffffffffffffffffffffffffffffffff16021790555050505062000560565b600033905090565b6000600a60009054906101000a900473ffffffffffffffffffffffffffffffffffffffff16905081600a60006101000a81548173ffffffffffffffffffffffffffffffffffffffff021916908373ffffffffffffffffffffffffffffffffffffffff1602179055508173ffffffffffffffffffffffffffffffffffffffff168173ffffffffffffffffffffffffffffffffffffffff167f8be0079c531659141344cd1fd0a4f28419497f9722a3daafe3b4186f6b6457e060405160405180910390a35050565b828054620001bd906200052a565b90600052602060002090601f016020900481019282620001e157600085556200022d565b82601f10620001fc57805160ff19168380011785556200022d565b828001600101855582156200022d579182015b828111156200022c5782518255916020019190600101906200020f565b5b5090506200023c919062000240565b5090565b5b808211156200025b57600081600090555060010162000241565b5090565b6000604051905090565b600080fd5b600080fd5b600080fd5b600080fd5b6000601f19601f8301169050919050565b7f4e487b7100000000000000000000000000000000000000000000000000000000600052604160045260246000fd5b620002c8826200027d565b810181811067ffffffffffffffff82111715620002ea57620002e96200028e565b5b80604052505050565b6000620002ff6200025f565b90506200030d8282620002bd565b919050565b600067ffffffffffffffff82111562000330576200032f6200028e565b5b6200033b826200027d565b9050602081019050919050565b60005b83811015620003685780820151818401526020810190506200034b565b8381111562000378576000848401525b50505050565b6000620003956200038f8462000312565b620002f3565b905082815260208101848484011115620003b457620003b362000278565b5b620003c184828562000348565b509392505050565b600082601f830112620003e157620003e062000273565b5b8151620003f38482602086016200037e565b91505092915050565b600073ffffffffffffffffffffffffffffffffffffffff82169050919050565b60006200042982620003fc565b9050919050565b6200043b816200041c565b81146200044757600080fd5b50565b6000815190506200045b8162000430565b92915050565b6000806000606084860312156200047d576200047c62000269565b5b600084015167ffffffffffffffff8111156200049e576200049d6200026e565b5b620004ac86828701620003c9565b935050602084015167ffffffffffffffff811115620004d057620004cf6200026e565b5b620004de86828701620003c9565b9250506040620004f1868287016200044a565b9150509250925092565b7f4e487b7100000000000000000000000000000000000000000000000000000000600052602260045260246000fd5b600060028204905060018216806200054357607f821691505b602082108114156200055a5762000559620004fb565b5b50919050565b6155f880620005706000396000f3fe6080604052600436106101ee5760003560e01c80637220cf391161010d578063c87b56dd116100a0578063e0391b091161006f578063e0391b0914610731578063e985e9c51461075c578063eedc966a14610799578063f29f15af146107d6578063f2fde38b14610813576101ee565b8063c87b56dd1461064f578063d254d2c61461068c578063d7e84fbf146106c9578063dbacc237146106f4576101ee565b80639ba4b017116100dc5780639ba4b017146105a4578063a22cb465146105c0578063b3de019c146105e9578063b88d4fde14610626576101ee565b80637220cf3914610507578063799c0c1e146105325780638da5cb5b1461054e57806395d89b4114610579576101ee565b806327506f5311610185578063576f7ea711610154578063576f7ea7146104395780636352211e1461047657806370a08231146104b3578063715018a6146104f0576101ee565b806327506f531461036b5780632f745c591461039657806342842e0e146103d35780634f6ccce7146103fc576101ee565b8063095ea7b3116101c1578063095ea7b3146102c357806313faede6146102ec57806318160ddd1461031757806323b872dd14610342576101ee565b806301ffc9a7146101f3578063047fc9aa1461023057806306fdde031461025b578063081812fc14610286575b600080fd5b3480156101ff57600080fd5b5061021a60048036038101906102159190613c9b565b61083c565b6040516102279190613ce3565b60405180910390f35b34801561023c57600080fd5b506102456108b6565b6040516102529190613d17565b60405180910390f35b34801561026757600080fd5b506102706108bc565b60405161027d9190613dcb565b60405180910390f35b34801561029257600080fd5b506102ad60048036038101906102a89190613e19565b61094e565b6040516102ba9190613e87565b60405180910390f35b3480156102cf57600080fd5b506102ea60048036038101906102e59190613ece565b610994565b005b3480156102f857600080fd5b50610301610aac565b60405161030e9190613d17565b60405180910390f35b34801561032357600080fd5b5061032c610ab2565b6040516103399190613d17565b60405180910390f35b34801561034e57600080fd5b5061036960048036038101906103649190613f0e565b610abf565b005b34801561037757600080fd5b50610380610b1f565b60405161038d9190614158565b60405180910390f35b3480156103a257600080fd5b506103bd60048036038101906103b89190613ece565b610dc4565b6040516103ca9190613d17565b60405180910390f35b3480156103df57600080fd5b506103fa60048036038101906103f59190613f0e565b610e69565b005b34801561040857600080fd5b50610423600480360381019061041e9190613e19565b610e89565b6040516104309190613d17565b60405180910390f35b34801561044557600080fd5b50610460600480360381019061045b9190613e19565b610efa565b60405161046d9190614238565b60405180910390f35b34801561048257600080fd5b5061049d60048036038101906104989190613e19565b611188565b6040516104aa9190613e87565b60405180910390f35b3480156104bf57600080fd5b506104da60048036038101906104d5919061425a565b61120f565b6040516104e79190613d17565b60405180910390f35b3480156104fc57600080fd5b506105056112c7565b005b34801561051357600080fd5b5061051c6112db565b6040516105299190613d17565b60405180910390f35b61054c600480360381019061054791906143bc565b6112e1565b005b34801561055a57600080fd5b5061056361165d565b6040516105709190613e87565b60405180910390f35b34801561058557600080fd5b5061058e611687565b60405161059b9190613dcb565b60405180910390f35b6105be60048036038101906105b99190613e19565b611719565b005b3480156105cc57600080fd5b506105e760048036038101906105e291906144a3565b611d8c565b005b3480156105f557600080fd5b50610610600480360381019061060b91906144e3565b611da2565b60405161061d9190613ce3565b60405180910390f35b34801561063257600080fd5b5061064d600480360381019061064891906145c4565b611ee5565b005b34801561065b57600080fd5b5061067660048036038101906106719190613e19565b611f47565b6040516106839190613dcb565b60405180910390f35b34801561069857600080fd5b506106b360048036038101906106ae9190613e19565b611faf565b6040516106c09190613ce3565b60405180910390f35b3480156106d557600080fd5b506106de611ff7565b6040516106eb9190613e87565b60405180910390f35b34801561070057600080fd5b5061071b60048036038101906107169190613e19565b61201d565b6040516107289190613e87565b60405180910390f35b34801561073d57600080fd5b50610746612050565b6040516107539190614158565b60405180910390f35b34801561076857600080fd5b50610783600480360381019061077e9190614647565b6122f5565b6040516107909190613ce3565b60405180910390f35b3480156107a557600080fd5b506107c060048036038101906107bb919061425a565b612389565b6040516107cd9190613d17565b60405180910390f35b3480156107e257600080fd5b506107fd60048036038101906107f89190613e19565b612451565b60405161080a9190613ce3565b60405180910390f35b34801561081f57600080fd5b5061083a6004803603810190610835919061425a565b6124a8565b005b60007f780e9d63000000000000000000000000000000000000000000000000000000007bffffffffffffffffffffffffffffffffffffffffffffffffffffffff1916827bffffffffffffffffffffffffffffffffffffffffffffffffffffffff191614806108af57506108ae8261252c565b5b9050919050565b600e5481565b6060600080546108cb906146b6565b80601f01602080910402602001604051908101604052809291908181526020018280546108f7906146b6565b80156109445780601f1061091957610100808354040283529160200191610944565b820191906000526020600020905b81548152906001019060200180831161092757829003601f168201915b5050505050905090565b60006109598261260e565b6004600083815260200190815260200160002060009054906101000a900473ffffffffffffffffffffffffffffffffffffffff169050919050565b600061099f82611188565b90508073ffffffffffffffffffffffffffffffffffffffff168373ffffffffffffffffffffffffffffffffffffffff161415610a10576040517f08c379a0000000000000000000000000000000000000000000000000000000008152600401610a079061475a565b60405180910390fd5b8073ffffffffffffffffffffffffffffffffffffffff16610a2f612659565b73ffffffffffffffffffffffffffffffffffffffff161480610a5e5750610a5d81610a58612659565b6122f5565b5b610a9d576040517f08c379a0000000000000000000000000000000000000000000000000000000008152600401610a94906147ec565b60405180910390fd5b610aa78383612661565b505050565b60105481565b6000600880549050905090565b610ad0610aca612659565b8261271a565b610b0f576040517f08c379a0000000000000000000000000000000000000000000000000000000008152600401610b069061487e565b60405180910390fd5b610b1a8383836127af565b505050565b60606011805480602002602001604051908101604052809291908181526020016000905b82821015610dbb578382906000526020600020906008020160405180610100016040529081600082015481526020016001820160009054906101000a900473ffffffffffffffffffffffffffffffffffffffff1673ffffffffffffffffffffffffffffffffffffffff1673ffffffffffffffffffffffffffffffffffffffff16815260200160028201548152602001600382018054610be1906146b6565b80601f0160208091040260200160405190810160405280929190818152602001828054610c0d906146b6565b8015610c5a5780601f10610c2f57610100808354040283529160200191610c5a565b820191906000526020600020905b815481529060010190602001808311610c3d57829003601f168201915b50505050508152602001600482018054610c73906146b6565b80601f0160208091040260200160405190810160405280929190818152602001828054610c9f906146b6565b8015610cec5780601f10610cc157610100808354040283529160200191610cec565b820191906000526020600020905b815481529060010190602001808311610ccf57829003601f168201915b50505050508152602001600582018054610d05906146b6565b80601f0160208091040260200160405190810160405280929190818152602001828054610d31906146b6565b8015610d7e5780601f10610d5357610100808354040283529160200191610d7e565b820191906000526020600020905b815481529060010190602001808311610d6157829003601f168201915b50505050508152602001600682015481526020016007820160009054906101000a900460ff16151515158152505081526020019060010190610b43565b50505050905090565b6000610dcf8361120f565b8210610e10576040517f08c379a0000000000000000000000000000000000000000000000000000000008152600401610e0790614910565b60405180910390fd5b600660008473ffffffffffffffffffffffffffffffffffffffff1673ffffffffffffffffffffffffffffffffffffffff168152602001908152602001600020600083815260200190815260200160002054905092915050565b610e8483838360405180602001604052806000815250611ee5565b505050565b6000610e93610ab2565b8210610ed4576040517f08c379a0000000000000000000000000000000000000000000000000000000008152600401610ecb906149a2565b60405180910390fd5b60088281548110610ee857610ee76149c2565b5b90600052602060002001549050919050565b610f02613b2f565b6012600183610f119190614a20565b81548110610f2257610f216149c2565b5b906000526020600020906008020160405180610100016040529081600082015481526020016001820160009054906101000a900473ffffffffffffffffffffffffffffffffffffffff1673ffffffffffffffffffffffffffffffffffffffff1673ffffffffffffffffffffffffffffffffffffffff16815260200160028201548152602001600382018054610fb6906146b6565b80601f0160208091040260200160405190810160405280929190818152602001828054610fe2906146b6565b801561102f5780601f106110045761010080835404028352916020019161102f565b820191906000526020600020905b81548152906001019060200180831161101257829003601f168201915b50505050508152602001600482018054611048906146b6565b80601f0160208091040260200160405190810160405280929190818152602001828054611074906146b6565b80156110c15780601f10611096576101008083540402835291602001916110c1565b820191906000526020600020905b8154815290600101906020018083116110a457829003601f168201915b505050505081526020016005820180546110da906146b6565b80601f0160208091040260200160405190810160405280929190818152602001828054611106906146b6565b80156111535780601f1061112857610100808354040283529160200191611153565b820191906000526020600020905b81548152906001019060200180831161113657829003601f168201915b50505050508152602001600682015481526020016007820160009054906101000a900460ff1615151515815250509050919050565b60008061119483612aa9565b9050600073ffffffffffffffffffffffffffffffffffffffff168173ffffffffffffffffffffffffffffffffffffffff161415611206576040517f08c379a00000000000000000000000000000000000000000000000000000000081526004016111fd90614aa0565b60405180910390fd5b80915050919050565b60008073ffffffffffffffffffffffffffffffffffffffff168273ffffffffffffffffffffffffffffffffffffffff161415611280576040517f08c379a000000000000000000000000000000000000000000000000000000000815260040161127790614b32565b60405180910390fd5b600360008373ffffffffffffffffffffffffffffffffffffffff1673ffffffffffffffffffffffffffffffffffffffff168152602001908152602001600020549050919050565b6112cf612ae6565b6112d96000612b64565b565b600f5481565b600d60009054906101000a900473ffffffffffffffffffffffffffffffffffffffff1673ffffffffffffffffffffffffffffffffffffffff163373ffffffffffffffffffffffffffffffffffffffff1614611371576040517f08c379a000000000000000000000000000000000000000000000000000000000815260040161136890614b9e565b60405180910390fd5b6000600b836040516113839190614bfa565b908152602001604051809103902060009054906101000a900460ff1660ff16146113e2576040517f08c379a00000000000000000000000000000000000000000000000000000000081526004016113d990614c5d565b60405180910390fd5b6113f36113ed61165d565b34612c2a565b600e600081548092919061140690614c7d565b91905055506012604051806101000160405280600e5481526020013373ffffffffffffffffffffffffffffffffffffffff1681526020018381526020018681526020018581526020018481526020014281526020016001151581525090806001815401808255809150506001900390600052602060002090600802016000909190919091506000820151816000015560208201518160010160006101000a81548173ffffffffffffffffffffffffffffffffffffffff021916908373ffffffffffffffffffffffffffffffffffffffff160217905550604082015181600201556060820151816003019080519060200190611502929190613b8c565b50608082015181600401908051906020019061151f929190613b8c565b5060a082015181600501908051906020019061153c929190613b8c565b5060c0820151816006015560e08201518160070160006101000a81548160ff02191690831515021790555050503373ffffffffffffffffffffffffffffffffffffffff167fb9508407a6eccb191d8da3286f4173697cf95604e9ea192fe5ab7c862b5221f6600e543485426040516115b79493929190614cc6565b60405180910390a26115cb33600e54612ca5565b6001600b836040516115dd9190614bfa565b908152602001604051809103902060006101000a81548160ff021916908360ff16021790555033600c6000600e54815260200190815260200160002060006101000a81548173ffffffffffffffffffffffffffffffffffffffff021916908373ffffffffffffffffffffffffffffffffffffffff16021790555050505050565b6000600a60009054906101000a900473ffffffffffffffffffffffffffffffffffffffff16905090565b606060018054611696906146b6565b80601f01602080910402602001604051908101604052809291908181526020018280546116c2906146b6565b801561170f5780601f106116e45761010080835404028352916020019161170f565b820191906000526020600020905b8154815290600101906020018083116116f257829003601f168201915b5050505050905090565b60126001826117289190614a20565b81548110611739576117386149c2565b5b90600052602060002090600802016002015434101561178d576040517f08c379a000000000000000000000000000000000000000000000000000000000815260040161178490614d5e565b60405180910390fd5b601260018261179c9190614a20565b815481106117ad576117ac6149c2565b5b906000526020600020906008020160010160009054906101000a900473ffffffffffffffffffffffffffffffffffffffff1673ffffffffffffffffffffffffffffffffffffffff163373ffffffffffffffffffffffffffffffffffffffff16141561184d576040517f08c379a000000000000000000000000000000000000000000000000000000000815260040161184490614dca565b60405180910390fd5b6118a8601260018361185f9190614a20565b815481106118705761186f6149c2565b5b906000526020600020906008020160010160009054906101000a900473ffffffffffffffffffffffffffffffffffffffff1634612c2a565b600f60008154809291906118bb90614c7d565b91905055506011604051806101000160405280600f5481526020013373ffffffffffffffffffffffffffffffffffffffff16815260200134815260200160126001856119079190614a20565b81548110611918576119176149c2565b5b90600052602060002090600802016003018054611934906146b6565b80601f0160208091040260200160405190810160405280929190818152602001828054611960906146b6565b80156119ad5780601f10611982576101008083540402835291602001916119ad565b820191906000526020600020905b81548152906001019060200180831161199057829003601f168201915b5050505050815260200160126001856119c69190614a20565b815481106119d7576119d66149c2565b5b906000526020600020906008020160040180546119f3906146b6565b80601f0160208091040260200160405190810160405280929190818152602001828054611a1f906146b6565b8015611a6c5780601f10611a4157610100808354040283529160200191611a6c565b820191906000526020600020905b815481529060010190602001808311611a4f57829003601f168201915b505050505081526020016012600185611a859190614a20565b81548110611a9657611a956149c2565b5b90600052602060002090600802016005018054611ab2906146b6565b80601f0160208091040260200160405190810160405280929190818152602001828054611ade906146b6565b8015611b2b5780601f10611b0057610100808354040283529160200191611b2b565b820191906000526020600020905b815481529060010190602001808311611b0e57829003601f168201915b505050505081526020014281526020016000151581525090806001815401808255809150506001900390600052602060002090600802016000909190919091506000820151816000015560208201518160010160006101000a81548173ffffffffffffffffffffffffffffffffffffffff021916908373ffffffffffffffffffffffffffffffffffffffff160217905550604082015181600201556060820151816003019080519060200190611be2929190613b8c565b506080820151816004019080519060200190611bff929190613b8c565b5060a0820151816005019080519060200190611c1c929190613b8c565b5060c0820151816006015560e08201518160070160006101000a81548160ff02191690831515021790555050503373ffffffffffffffffffffffffffffffffffffffff167fb9508407a6eccb191d8da3286f4173697cf95604e9ea192fe5ab7c862b5221f6600f54346012600186611c949190614a20565b81548110611ca557611ca46149c2565b5b906000526020600020906008020160050142604051611cc79493929190614e7f565b60405180910390a2336012600183611cdf9190614a20565b81548110611cf057611cef6149c2565b5b906000526020600020906008020160010160006101000a81548173ffffffffffffffffffffffffffffffffffffffff021916908373ffffffffffffffffffffffffffffffffffffffff16021790555060006012600183611d509190614a20565b81548110611d6157611d606149c2565b5b906000526020600020906008020160070160006101000a81548160ff02191690831515021790555050565b611d9e611d97612659565b8383612cc3565b5050565b6000808211611de6576040517f08c379a0000000000000000000000000000000000000000000000000000000008152600401611ddd90614f17565b60405180910390fd5b6012600184611df59190614a20565b81548110611e0657611e056149c2565b5b906000526020600020906008020160010160009054906101000a900473ffffffffffffffffffffffffffffffffffffffff1673ffffffffffffffffffffffffffffffffffffffff163373ffffffffffffffffffffffffffffffffffffffff1614611ea5576040517f08c379a0000000000000000000000000000000000000000000000000000000008152600401611e9c90614dca565b60405180910390fd5b816012600185611eb59190614a20565b81548110611ec657611ec56149c2565b5b9060005260206000209060080201600201819055506001905092915050565b611ef6611ef0612659565b8361271a565b611f35576040517f08c379a0000000000000000000000000000000000000000000000000000000008152600401611f2c9061487e565b60405180910390fd5b611f4184848484612e30565b50505050565b6060611f528261260e565b6000611f5c612e8c565b90506000815111611f7c5760405180602001604052806000815250611fa7565b80611f8684612ea3565b604051602001611f97929190614f37565b6040516020818303038152906040525b915050919050565b60006012600183611fc09190614a20565b81548110611fd157611fd06149c2565b5b906000526020600020906008020160070160009054906101000a900460ff169050919050565b600d60009054906101000a900473ffffffffffffffffffffffffffffffffffffffff1681565b600c6020528060005260406000206000915054906101000a900473ffffffffffffffffffffffffffffffffffffffff1681565b60606012805480602002602001604051908101604052809291908181526020016000905b828210156122ec578382906000526020600020906008020160405180610100016040529081600082015481526020016001820160009054906101000a900473ffffffffffffffffffffffffffffffffffffffff1673ffffffffffffffffffffffffffffffffffffffff1673ffffffffffffffffffffffffffffffffffffffff16815260200160028201548152602001600382018054612112906146b6565b80601f016020809104026020016040519081016040528092919081815260200182805461213e906146b6565b801561218b5780601f106121605761010080835404028352916020019161218b565b820191906000526020600020905b81548152906001019060200180831161216e57829003601f168201915b505050505081526020016004820180546121a4906146b6565b80601f01602080910402602001604051908101604052809291908181526020018280546121d0906146b6565b801561221d5780601f106121f25761010080835404028352916020019161221d565b820191906000526020600020905b81548152906001019060200180831161220057829003601f168201915b50505050508152602001600582018054612236906146b6565b80601f0160208091040260200160405190810160405280929190818152602001828054612262906146b6565b80156122af5780601f10612284576101008083540402835291602001916122af565b820191906000526020600020905b81548152906001019060200180831161229257829003601f168201915b50505050508152602001600682015481526020016007820160009054906101000a900460ff16151515158152505081526020019060010190612074565b50505050905090565b6000600560008473ffffffffffffffffffffffffffffffffffffffff1673ffffffffffffffffffffffffffffffffffffffff16815260200190815260200160002060008373ffffffffffffffffffffffffffffffffffffffff1673ffffffffffffffffffffffffffffffffffffffff16815260200190815260200160002060009054906101000a900460ff16905092915050565b600080600090506000600190505b600e5481116124475760126001826123af9190614a20565b815481106123c0576123bf6149c2565b5b906000526020600020906008020160010160009054906101000a900473ffffffffffffffffffffffffffffffffffffffff1673ffffffffffffffffffffffffffffffffffffffff168473ffffffffffffffffffffffffffffffffffffffff16141561243457818061243090614c7d565b9250505b808061243f90614c7d565b915050612397565b5080915050919050565b600080600160126001856124659190614a20565b81548110612476576124756149c2565b5b906000526020600020906008020160070160006101000a81548160ff0219169083151502179055905080915050919050565b6124b0612ae6565b600073ffffffffffffffffffffffffffffffffffffffff168173ffffffffffffffffffffffffffffffffffffffff161415612520576040517f08c379a000000000000000000000000000000000000000000000000000000000815260040161251790614fcd565b60405180910390fd5b61252981612b64565b50565b60007f80ac58cd000000000000000000000000000000000000000000000000000000007bffffffffffffffffffffffffffffffffffffffffffffffffffffffff1916827bffffffffffffffffffffffffffffffffffffffffffffffffffffffff191614806125f757507f5b5e139f000000000000000000000000000000000000000000000000000000007bffffffffffffffffffffffffffffffffffffffffffffffffffffffff1916827bffffffffffffffffffffffffffffffffffffffffffffffffffffffff1916145b80612607575061260682612f7b565b5b9050919050565b61261781612fe5565b612656576040517f08c379a000000000000000000000000000000000000000000000000000000000815260040161264d90614aa0565b60405180910390fd5b50565b600033905090565b816004600083815260200190815260200160002060006101000a81548173ffffffffffffffffffffffffffffffffffffffff021916908373ffffffffffffffffffffffffffffffffffffffff160217905550808273ffffffffffffffffffffffffffffffffffffffff166126d483611188565b73ffffffffffffffffffffffffffffffffffffffff167f8c5be1e5ebec7d5bd14f71427d1e84f3dd0314c0f7b2291e5b200ac8c7c3b92560405160405180910390a45050565b60008061272683611188565b90508073ffffffffffffffffffffffffffffffffffffffff168473ffffffffffffffffffffffffffffffffffffffff161480612768575061276781856122f5565b5b806127a657508373ffffffffffffffffffffffffffffffffffffffff1661278e8461094e565b73ffffffffffffffffffffffffffffffffffffffff16145b91505092915050565b8273ffffffffffffffffffffffffffffffffffffffff166127cf82611188565b73ffffffffffffffffffffffffffffffffffffffff1614612825576040517f08c379a000000000000000000000000000000000000000000000000000000000815260040161281c9061505f565b60405180910390fd5b600073ffffffffffffffffffffffffffffffffffffffff168273ffffffffffffffffffffffffffffffffffffffff161415612895576040517f08c379a000000000000000000000000000000000000000000000000000000000815260040161288c906150f1565b60405180910390fd5b6128a28383836001613026565b8273ffffffffffffffffffffffffffffffffffffffff166128c282611188565b73ffffffffffffffffffffffffffffffffffffffff1614612918576040517f08c379a000000000000000000000000000000000000000000000000000000000815260040161290f9061505f565b60405180910390fd5b6004600082815260200190815260200160002060006101000a81549073ffffffffffffffffffffffffffffffffffffffff02191690556001600360008573ffffffffffffffffffffffffffffffffffffffff1673ffffffffffffffffffffffffffffffffffffffff168152602001908152602001600020600082825403925050819055506001600360008473ffffffffffffffffffffffffffffffffffffffff1673ffffffffffffffffffffffffffffffffffffffff16815260200190815260200160002060008282540192505081905550816002600083815260200190815260200160002060006101000a81548173ffffffffffffffffffffffffffffffffffffffff021916908373ffffffffffffffffffffffffffffffffffffffff160217905550808273ffffffffffffffffffffffffffffffffffffffff168473ffffffffffffffffffffffffffffffffffffffff167fddf252ad1be2c89b69c2b068fc378daa952ba7f163c4a11628f55a4df523b3ef60405160405180910390a4612aa48383836001613186565b505050565b60006002600083815260200190815260200160002060009054906101000a900473ffffffffffffffffffffffffffffffffffffffff169050919050565b612aee612659565b73ffffffffffffffffffffffffffffffffffffffff16612b0c61165d565b73ffffffffffffffffffffffffffffffffffffffff1614612b62576040517f08c379a0000000000000000000000000000000000000000000000000000000008152600401612b599061515d565b60405180910390fd5b565b6000600a60009054906101000a900473ffffffffffffffffffffffffffffffffffffffff16905081600a60006101000a81548173ffffffffffffffffffffffffffffffffffffffff021916908373ffffffffffffffffffffffffffffffffffffffff1602179055508173ffffffffffffffffffffffffffffffffffffffff168173ffffffffffffffffffffffffffffffffffffffff167f8be0079c531659141344cd1fd0a4f28419497f9722a3daafe3b4186f6b6457e060405160405180910390a35050565b60008273ffffffffffffffffffffffffffffffffffffffff1682604051612c50906151ae565b60006040518083038185875af1925050503d8060008114612c8d576040519150601f19603f3d011682016040523d82523d6000602084013e612c92565b606091505b5050905080612ca057600080fd5b505050565b612cbf82826040518060200160405280600081525061318c565b5050565b8173ffffffffffffffffffffffffffffffffffffffff168373ffffffffffffffffffffffffffffffffffffffff161415612d32576040517f08c379a0000000000000000000000000000000000000000000000000000000008152600401612d299061520f565b60405180910390fd5b80600560008573ffffffffffffffffffffffffffffffffffffffff1673ffffffffffffffffffffffffffffffffffffffff16815260200190815260200160002060008473ffffffffffffffffffffffffffffffffffffffff1673ffffffffffffffffffffffffffffffffffffffff16815260200190815260200160002060006101000a81548160ff0219169083151502179055508173ffffffffffffffffffffffffffffffffffffffff168373ffffffffffffffffffffffffffffffffffffffff167f17307eab39ab6107e8899845ad3d59bd9653f200f220920489ca2b5937696c3183604051612e239190613ce3565b60405180910390a3505050565b612e3b8484846127af565b612e47848484846131e7565b612e86576040517f08c379a0000000000000000000000000000000000000000000000000000000008152600401612e7d906152a1565b60405180910390fd5b50505050565b606060405180602001604052806000815250905090565b606060006001612eb28461336f565b01905060008167ffffffffffffffff811115612ed157612ed0614291565b5b6040519080825280601f01601f191660200182016040528015612f035781602001600182028036833780820191505090505b509050600082602001820190505b600115612f70578080600190039150507f3031323334353637383961626364656600000000000000000000000000000000600a86061a8153600a8581612f5a57612f596152c1565b5b0494506000851415612f6b57612f70565b612f11565b819350505050919050565b60007f01ffc9a7000000000000000000000000000000000000000000000000000000007bffffffffffffffffffffffffffffffffffffffffffffffffffffffff1916827bffffffffffffffffffffffffffffffffffffffffffffffffffffffff1916149050919050565b60008073ffffffffffffffffffffffffffffffffffffffff1661300783612aa9565b73ffffffffffffffffffffffffffffffffffffffff1614159050919050565b613032848484846134c2565b6001811115613076576040517f08c379a000000000000000000000000000000000000000000000000000000000815260040161306d90615362565b60405180910390fd5b6000829050600073ffffffffffffffffffffffffffffffffffffffff168573ffffffffffffffffffffffffffffffffffffffff1614156130be576130b9816135e8565b6130fd565b8373ffffffffffffffffffffffffffffffffffffffff168573ffffffffffffffffffffffffffffffffffffffff16146130fc576130fb8582613631565b5b5b600073ffffffffffffffffffffffffffffffffffffffff168473ffffffffffffffffffffffffffffffffffffffff1614156131405761313b8161379e565b61317f565b8473ffffffffffffffffffffffffffffffffffffffff168473ffffffffffffffffffffffffffffffffffffffff161461317e5761317d848261386f565b5b5b5050505050565b50505050565b61319683836138ee565b6131a360008484846131e7565b6131e2576040517f08c379a00000000000000000000000000000000000000000000000000000000081526004016131d9906152a1565b60405180910390fd5b505050565b60006132088473ffffffffffffffffffffffffffffffffffffffff16613b0c565b15613362578373ffffffffffffffffffffffffffffffffffffffff1663150b7a02613231612659565b8786866040518563ffffffff1660e01b815260040161325394939291906153d7565b6020604051808303816000875af192505050801561328f57506040513d601f19601f8201168201806040525081019061328c9190615438565b60015b613312573d80600081146132bf576040519150601f19603f3d011682016040523d82523d6000602084013e6132c4565b606091505b5060008151141561330a576040517f08c379a0000000000000000000000000000000000000000000000000000000008152600401613301906152a1565b60405180910390fd5b805181602001fd5b63150b7a0260e01b7bffffffffffffffffffffffffffffffffffffffffffffffffffffffff1916817bffffffffffffffffffffffffffffffffffffffffffffffffffffffff191614915050613367565b600190505b949350505050565b600080600090507a184f03e93ff9f4daa797ed6e38ed64bf6a1f01000000000000000083106133cd577a184f03e93ff9f4daa797ed6e38ed64bf6a1f01000000000000000083816133c3576133c26152c1565b5b0492506040810190505b6d04ee2d6d415b85acef8100000000831061340a576d04ee2d6d415b85acef81000000008381613400576133ff6152c1565b5b0492506020810190505b662386f26fc10000831061343957662386f26fc10000838161342f5761342e6152c1565b5b0492506010810190505b6305f5e1008310613462576305f5e1008381613458576134576152c1565b5b0492506008810190505b612710831061348757612710838161347d5761347c6152c1565b5b0492506004810190505b606483106134aa57606483816134a05761349f6152c1565b5b0492506002810190505b600a83106134b9576001810190505b80915050919050565b60018111156135e257600073ffffffffffffffffffffffffffffffffffffffff168473ffffffffffffffffffffffffffffffffffffffff16146135565780600360008673ffffffffffffffffffffffffffffffffffffffff1673ffffffffffffffffffffffffffffffffffffffff168152602001908152602001600020600082825461354e9190614a20565b925050819055505b600073ffffffffffffffffffffffffffffffffffffffff168373ffffffffffffffffffffffffffffffffffffffff16146135e15780600360008573ffffffffffffffffffffffffffffffffffffffff1673ffffffffffffffffffffffffffffffffffffffff16815260200190815260200160002060008282546135d99190615465565b925050819055505b5b50505050565b6008805490506009600083815260200190815260200160002081905550600881908060018154018082558091505060019003906000526020600020016000909190919091505550565b6000600161363e8461120f565b6136489190614a20565b905060006007600084815260200190815260200160002054905081811461372d576000600660008673ffffffffffffffffffffffffffffffffffffffff1673ffffffffffffffffffffffffffffffffffffffff168152602001908152602001600020600084815260200190815260200160002054905080600660008773ffffffffffffffffffffffffffffffffffffffff1673ffffffffffffffffffffffffffffffffffffffff168152602001908152602001600020600084815260200190815260200160002081905550816007600083815260200190815260200160002081905550505b6007600084815260200190815260200160002060009055600660008573ffffffffffffffffffffffffffffffffffffffff1673ffffffffffffffffffffffffffffffffffffffff16815260200190815260200160002060008381526020019081526020016000206000905550505050565b600060016008805490506137b29190614a20565b90506000600960008481526020019081526020016000205490506000600883815481106137e2576137e16149c2565b5b906000526020600020015490508060088381548110613804576138036149c2565b5b906000526020600020018190555081600960008381526020019081526020016000208190555060096000858152602001908152602001600020600090556008805480613853576138526154bb565b5b6001900381819060005260206000200160009055905550505050565b600061387a8361120f565b905081600660008573ffffffffffffffffffffffffffffffffffffffff1673ffffffffffffffffffffffffffffffffffffffff168152602001908152602001600020600083815260200190815260200160002081905550806007600084815260200190815260200160002081905550505050565b600073ffffffffffffffffffffffffffffffffffffffff168273ffffffffffffffffffffffffffffffffffffffff16141561395e576040517f08c379a000000000000000000000000000000000000000000000000000000000815260040161395590615536565b60405180910390fd5b61396781612fe5565b156139a7576040517f08c379a000000000000000000000000000000000000000000000000000000000815260040161399e906155a2565b60405180910390fd5b6139b5600083836001613026565b6139be81612fe5565b156139fe576040517f08c379a00000000000000000000000000000000000000000000000000000000081526004016139f5906155a2565b60405180910390fd5b6001600360008473ffffffffffffffffffffffffffffffffffffffff1673ffffffffffffffffffffffffffffffffffffffff16815260200190815260200160002060008282540192505081905550816002600083815260200190815260200160002060006101000a81548173ffffffffffffffffffffffffffffffffffffffff021916908373ffffffffffffffffffffffffffffffffffffffff160217905550808273ffffffffffffffffffffffffffffffffffffffff16600073ffffffffffffffffffffffffffffffffffffffff167fddf252ad1be2c89b69c2b068fc378daa952ba7f163c4a11628f55a4df523b3ef60405160405180910390a4613b08600083836001613186565b5050565b6000808273ffffffffffffffffffffffffffffffffffffffff163b119050919050565b60405180610100016040528060008152602001600073ffffffffffffffffffffffffffffffffffffffff16815260200160008152602001606081526020016060815260200160608152602001600081526020016000151581525090565b828054613b98906146b6565b90600052602060002090601f016020900481019282613bba5760008555613c01565b82601f10613bd357805160ff1916838001178555613c01565b82800160010185558215613c01579182015b82811115613c00578251825591602001919060010190613be5565b5b509050613c0e9190613c12565b5090565b5b80821115613c2b576000816000905550600101613c13565b5090565b6000604051905090565b600080fd5b600080fd5b60007fffffffff0000000000000000000000000000000000000000000000000000000082169050919050565b613c7881613c43565b8114613c8357600080fd5b50565b600081359050613c9581613c6f565b92915050565b600060208284031215613cb157613cb0613c39565b5b6000613cbf84828501613c86565b91505092915050565b60008115159050919050565b613cdd81613cc8565b82525050565b6000602082019050613cf86000830184613cd4565b92915050565b6000819050919050565b613d1181613cfe565b82525050565b6000602082019050613d2c6000830184613d08565b92915050565b600081519050919050565b600082825260208201905092915050565b60005b83811015613d6c578082015181840152602081019050613d51565b83811115613d7b576000848401525b50505050565b6000601f19601f8301169050919050565b6000613d9d82613d32565b613da78185613d3d565b9350613db7818560208601613d4e565b613dc081613d81565b840191505092915050565b60006020820190508181036000830152613de58184613d92565b905092915050565b613df681613cfe565b8114613e0157600080fd5b50565b600081359050613e1381613ded565b92915050565b600060208284031215613e2f57613e2e613c39565b5b6000613e3d84828501613e04565b91505092915050565b600073ffffffffffffffffffffffffffffffffffffffff82169050919050565b6000613e7182613e46565b9050919050565b613e8181613e66565b82525050565b6000602082019050613e9c6000830184613e78565b92915050565b613eab81613e66565b8114613eb657600080fd5b50565b600081359050613ec881613ea2565b92915050565b60008060408385031215613ee557613ee4613c39565b5b6000613ef385828601613eb9565b9250506020613f0485828601613e04565b9150509250929050565b600080600060608486031215613f2757613f26613c39565b5b6000613f3586828701613eb9565b9350506020613f4686828701613eb9565b9250506040613f5786828701613e04565b9150509250925092565b600081519050919050565b600082825260208201905092915050565b6000819050602082019050919050565b613f9681613cfe565b82525050565b613fa581613e66565b82525050565b600082825260208201905092915050565b6000613fc782613d32565b613fd18185613fab565b9350613fe1818560208601613d4e565b613fea81613d81565b840191505092915050565b613ffe81613cc8565b82525050565b60006101008301600083015161401d6000860182613f8d565b5060208301516140306020860182613f9c565b5060408301516140436040860182613f8d565b506060830151848203606086015261405b8282613fbc565b915050608083015184820360808601526140758282613fbc565b91505060a083015184820360a086015261408f8282613fbc565b91505060c08301516140a460c0860182613f8d565b5060e08301516140b760e0860182613ff5565b508091505092915050565b60006140ce8383614004565b905092915050565b6000602082019050919050565b60006140ee82613f61565b6140f88185613f6c565b93508360208202850161410a85613f7d565b8060005b85811015614146578484038952815161412785826140c2565b9450614132836140d6565b925060208a0199505060018101905061410e565b50829750879550505050505092915050565b6000602082019050818103600083015261417281846140e3565b905092915050565b6000610100830160008301516141936000860182613f8d565b5060208301516141a66020860182613f9c565b5060408301516141b96040860182613f8d565b50606083015184820360608601526141d18282613fbc565b915050608083015184820360808601526141eb8282613fbc565b91505060a083015184820360a08601526142058282613fbc565b91505060c083015161421a60c0860182613f8d565b5060e083015161422d60e0860182613ff5565b508091505092915050565b60006020820190508181036000830152614252818461417a565b905092915050565b6000602082840312156142705761426f613c39565b5b600061427e84828501613eb9565b91505092915050565b600080fd5b600080fd5b7f4e487b7100000000000000000000000000000000000000000000000000000000600052604160045260246000fd5b6142c982613d81565b810181811067ffffffffffffffff821117156142e8576142e7614291565b5b80604052505050565b60006142fb613c2f565b905061430782826142c0565b919050565b600067ffffffffffffffff82111561432757614326614291565b5b61433082613d81565b9050602081019050919050565b82818337600083830152505050565b600061435f61435a8461430c565b6142f1565b90508281526020810184848401111561437b5761437a61428c565b5b61438684828561433d565b509392505050565b600082601f8301126143a3576143a2614287565b5b81356143b384826020860161434c565b91505092915050565b600080600080608085870312156143d6576143d5613c39565b5b600085013567ffffffffffffffff8111156143f4576143f3613c3e565b5b6144008782880161438e565b945050602085013567ffffffffffffffff81111561442157614420613c3e565b5b61442d8782880161438e565b935050604085013567ffffffffffffffff81111561444e5761444d613c3e565b5b61445a8782880161438e565b925050606061446b87828801613e04565b91505092959194509250565b61448081613cc8565b811461448b57600080fd5b50565b60008135905061449d81614477565b92915050565b600080604083850312156144ba576144b9613c39565b5b60006144c885828601613eb9565b92505060206144d98582860161448e565b9150509250929050565b600080604083850312156144fa576144f9613c39565b5b600061450885828601613e04565b925050602061451985828601613e04565b9150509250929050565b600067ffffffffffffffff82111561453e5761453d614291565b5b61454782613d81565b9050602081019050919050565b600061456761456284614523565b6142f1565b9050828152602081018484840111156145835761458261428c565b5b61458e84828561433d565b509392505050565b600082601f8301126145ab576145aa614287565b5b81356145bb848260208601614554565b91505092915050565b600080600080608085870312156145de576145dd613c39565b5b60006145ec87828801613eb9565b94505060206145fd87828801613eb9565b935050604061460e87828801613e04565b925050606085013567ffffffffffffffff81111561462f5761462e613c3e565b5b61463b87828801614596565b91505092959194509250565b6000806040838503121561465e5761465d613c39565b5b600061466c85828601613eb9565b925050602061467d85828601613eb9565b9150509250929050565b7f4e487b7100000000000000000000000000000000000000000000000000000000600052602260045260246000fd5b600060028204905060018216806146ce57607f821691505b602082108114156146e2576146e1614687565b5b50919050565b7f4552433732313a20617070726f76616c20746f2063757272656e74206f776e6560008201527f7200000000000000000000000000000000000000000000000000000000000000602082015250565b6000614744602183613d3d565b915061474f826146e8565b604082019050919050565b6000602082019050818103600083015261477381614737565b9050919050565b7f4552433732313a20617070726f76652063616c6c6572206973206e6f7420746f60008201527f6b656e206f776e6572206f7220617070726f76656420666f7220616c6c000000602082015250565b60006147d6603d83613d3d565b91506147e18261477a565b604082019050919050565b60006020820190508181036000830152614805816147c9565b9050919050565b7f4552433732313a2063616c6c6572206973206e6f7420746f6b656e206f776e6560008201527f72206f7220617070726f76656400000000000000000000000000000000000000602082015250565b6000614868602d83613d3d565b91506148738261480c565b604082019050919050565b600060208201905081810360008301526148978161485b565b9050919050565b7f455243373231456e756d657261626c653a206f776e657220696e646578206f7560008201527f74206f6620626f756e6473000000000000000000000000000000000000000000602082015250565b60006148fa602b83613d3d565b91506149058261489e565b604082019050919050565b60006020820190508181036000830152614929816148ed565b9050919050565b7f455243373231456e756d657261626c653a20676c6f62616c20696e646578206f60008201527f7574206f6620626f756e64730000000000000000000000000000000000000000602082015250565b600061498c602c83613d3d565b915061499782614930565b604082019050919050565b600060208201905081810360008301526149bb8161497f565b9050919050565b7f4e487b7100000000000000000000000000000000000000000000000000000000600052603260045260246000fd5b7f4e487b7100000000000000000000000000000000000000000000000000000000600052601160045260246000fd5b6000614a2b82613cfe565b9150614a3683613cfe565b925082821015614a4957614a486149f1565b5b828203905092915050565b7f4552433732313a20696e76616c696420746f6b656e2049440000000000000000600082015250565b6000614a8a601883613d3d565b9150614a9582614a54565b602082019050919050565b60006020820190508181036000830152614ab981614a7d565b9050919050565b7f4552433732313a2061646472657373207a65726f206973206e6f74206120766160008201527f6c6964206f776e65720000000000000000000000000000000000000000000000602082015250565b6000614b1c602983613d3d565b9150614b2782614ac0565b604082019050919050565b60006020820190508181036000830152614b4b81614b0f565b9050919050565b7f73656e646572206973206e6f74206f776e657221000000000000000000000000600082015250565b6000614b88601483613d3d565b9150614b9382614b52565b602082019050919050565b60006020820190508181036000830152614bb781614b7b565b9050919050565b600081905092915050565b6000614bd482613d32565b614bde8185614bbe565b9350614bee818560208601613d4e565b80840191505092915050565b6000614c068284614bc9565b915081905092915050565b7f54686973204e465420697320616c7265616479206d696e746564210000000000600082015250565b6000614c47601b83613d3d565b9150614c5282614c11565b602082019050919050565b60006020820190508181036000830152614c7681614c3a565b9050919050565b6000614c8882613cfe565b91507fffffffffffffffffffffffffffffffffffffffffffffffffffffffffffffffff821415614cbb57614cba6149f1565b5b600182019050919050565b6000608082019050614cdb6000830187613d08565b614ce86020830186613d08565b8181036040830152614cfa8185613d92565b9050614d096060830184613d08565b95945050505050565b7f457468657220746f6f206c6f7720666f72207075726368617365210000000000600082015250565b6000614d48601b83613d3d565b9150614d5382614d12565b602082019050919050565b60006020820190508181036000830152614d7781614d3b565b9050919050565b7f4f7065726174696f6e204e6f7420416c6c6f7765642100000000000000000000600082015250565b6000614db4601683613d3d565b9150614dbf82614d7e565b602082019050919050565b60006020820190508181036000830152614de381614da7565b9050919050565b60008190508160005260206000209050919050565b60008154614e0c816146b6565b614e168186613d3d565b94506001821660008114614e315760018114614e4357614e76565b60ff1983168652602086019350614e76565b614e4c85614dea565b60005b83811015614e6e57815481890152600182019150602081019050614e4f565b808801955050505b50505092915050565b6000608082019050614e946000830187613d08565b614ea16020830186613d08565b8181036040830152614eb38185614dff565b9050614ec26060830184613d08565b95945050505050565b7f457468657220746f6f206c6f7721000000000000000000000000000000000000600082015250565b6000614f01600e83613d3d565b9150614f0c82614ecb565b602082019050919050565b60006020820190508181036000830152614f3081614ef4565b9050919050565b6000614f438285614bc9565b9150614f4f8284614bc9565b91508190509392505050565b7f4f776e61626c653a206e6577206f776e657220697320746865207a65726f206160008201527f6464726573730000000000000000000000000000000000000000000000000000602082015250565b6000614fb7602683613d3d565b9150614fc282614f5b565b604082019050919050565b60006020820190508181036000830152614fe681614faa565b9050919050565b7f4552433732313a207472616e736665722066726f6d20696e636f72726563742060008201527f6f776e6572000000000000000000000000000000000000000000000000000000602082015250565b6000615049602583613d3d565b915061505482614fed565b604082019050919050565b600060208201905081810360008301526150788161503c565b9050919050565b7f4552433732313a207472616e7366657220746f20746865207a65726f2061646460008201527f7265737300000000000000000000000000000000000000000000000000000000602082015250565b60006150db602483613d3d565b91506150e68261507f565b604082019050919050565b6000602082019050818103600083015261510a816150ce565b9050919050565b7f4f776e61626c653a2063616c6c6572206973206e6f7420746865206f776e6572600082015250565b6000615147602083613d3d565b915061515282615111565b602082019050919050565b600060208201905081810360008301526151768161513a565b9050919050565b600081905092915050565b50565b600061519860008361517d565b91506151a382615188565b600082019050919050565b60006151b98261518b565b9150819050919050565b7f4552433732313a20617070726f766520746f2063616c6c657200000000000000600082015250565b60006151f9601983613d3d565b9150615204826151c3565b602082019050919050565b60006020820190508181036000830152615228816151ec565b9050919050565b7f4552433732313a207472616e7366657220746f206e6f6e20455243373231526560008201527f63656976657220696d706c656d656e7465720000000000000000000000000000602082015250565b600061528b603283613d3d565b91506152968261522f565b604082019050919050565b600060208201905081810360008301526152ba8161527e565b9050919050565b7f4e487b7100000000000000000000000000000000000000000000000000000000600052601260045260246000fd5b7f455243373231456e756d657261626c653a20636f6e736563757469766520747260008201527f616e7366657273206e6f7420737570706f727465640000000000000000000000602082015250565b600061534c603583613d3d565b9150615357826152f0565b604082019050919050565b6000602082019050818103600083015261537b8161533f565b9050919050565b600081519050919050565b600082825260208201905092915050565b60006153a982615382565b6153b3818561538d565b93506153c3818560208601613d4e565b6153cc81613d81565b840191505092915050565b60006080820190506153ec6000830187613e78565b6153f96020830186613e78565b6154066040830185613d08565b8181036060830152615418818461539e565b905095945050505050565b60008151905061543281613c6f565b92915050565b60006020828403121561544e5761544d613c39565b5b600061545c84828501615423565b91505092915050565b600061547082613cfe565b915061547b83613cfe565b9250827fffffffffffffffffffffffffffffffffffffffffffffffffffffffffffffffff038211156154b0576154af6149f1565b5b828201905092915050565b7f4e487b7100000000000000000000000000000000000000000000000000000000600052603160045260246000fd5b7f4552433732313a206d696e7420746f20746865207a65726f2061646472657373600082015250565b6000615520602083613d3d565b915061552b826154ea565b602082019050919050565b6000602082019050818103600083015261554f81615513565b9050919050565b7f4552433732313a20746f6b656e20616c7265616479206d696e74656400000000600082015250565b600061558c601c83613d3d565b915061559782615556565b602082019050919050565b600060208201905081810360008301526155bb8161557f565b905091905056fea2646970667358221220b58ed8312748f03e05c7bec7c654fd6a3a1e0973305d88fa0a0c581204d220a264736f6c634300080b0033",
  "immutableReferences": {},
  "source": "// SPDX-License-Identifier: MIT\r\npragma solidity ^0.8.0;\r\n\r\nimport \"@openzeppelin/contracts/token/ERC721/extensions/ERC721Enumerable.sol\";\r\nimport \"@openzeppelin/contracts/access/Ownable.sol\";\r\n\r\n\r\ncontract nft is ERC721Enumerable, Ownable{\r\n    using Strings for uint256;\r\n    mapping(string => uint8) existingURIs;\r\n    mapping(uint256 => address) public holderOf;\r\n  \r\n\r\n    address public builder;\r\n    uint256 public supply = 0;\r\n    uint256 public totalTx = 0;\r\n    uint256 public cost;\r\n\r\n    event Sale(\r\n        uint256 id,\r\n        address indexed owner,\r\n        uint256 cost,\r\n        string metadataURI,\r\n        uint256 timestamp\r\n    );\r\n\r\n    struct TransactionStruct {\r\n        uint256 id;\r\n        address owner;\r\n        uint256 cost;\r\n        string title;\r\n        string description;\r\n        string metadataURI;\r\n        uint256 timestamp;\r\n        bool forSale;\r\n    }\r\n\r\n    TransactionStruct[] transactions;\r\n    TransactionStruct[] minted;\r\n\r\n    constructor(\r\n        string memory _name,\r\n        string memory _symbol,\r\n        // uint256 _royalityFee,\r\n        address _builder\r\n    ) ERC721(_name, _symbol) {\r\n        // royalityFee = _royalityFee;\r\n        builder = _builder;\r\n    }\r\n\r\n    function payToMint(\r\n        string memory title,\r\n        string memory description,\r\n        string memory metadataURI,\r\n        uint256 salesPrice\r\n    ) external payable {\r\n        // require(msg.value >= cost, \"Ether too low for minting!\");\r\n        require(msg.sender == builder, \"sender is not owner!\");\r\n        require(existingURIs[metadataURI] == 0, \"This NFT is already minted!\");\r\n        // require(msg.sender != owner(), \"Sales not allowed!\");\r\n\r\n        // uint256 royality = (msg.value * royalityFee) / 100;\r\n        // payTo(artist, royality);\r\n        payTo(owner(), (msg.value));\r\n\r\n        supply++;\r\n\r\n        minted.push(\r\n            TransactionStruct(\r\n                supply,\r\n                msg.sender,\r\n                salesPrice,\r\n                title,\r\n                description,\r\n                metadataURI,\r\n                block.timestamp,\r\n                true\r\n            )\r\n        );\r\n\r\n        emit Sale(supply, msg.sender, msg.value, metadataURI, block.timestamp);\r\n\r\n        _safeMint(msg.sender, supply);\r\n        existingURIs[metadataURI] = 1;\r\n        holderOf[supply] = msg.sender;\r\n    }\r\n\r\n    function payToBuy(uint256 id) external payable {\r\n        require(\r\n            msg.value >= minted[id - 1].cost,\r\n            \"Ether too low for purchase!\"\r\n        );\r\n        require(msg.sender != minted[id - 1].owner, \"Operation Not Allowed!\");\r\n\r\n        // uint256 royality = (msg.value * royalityFee) / 100;\r\n        // payTo(artist, royality);\r\n        payTo(minted[id - 1].owner, (msg.value));\r\n        // approve(msg.sender,id);\r\n        // transferFrom(builder,msg.sender,id);\r\n        totalTx++;\r\n\r\n        transactions.push(\r\n            TransactionStruct(\r\n                totalTx,\r\n                msg.sender,\r\n                msg.value,\r\n                minted[id - 1].title,\r\n                minted[id - 1].description,\r\n                minted[id - 1].metadataURI,\r\n                block.timestamp,\r\n                false\r\n            )\r\n        );\r\n\r\n        emit Sale(\r\n            totalTx,\r\n            msg.sender,\r\n            msg.value,\r\n            minted[id - 1].metadataURI,\r\n            block.timestamp\r\n        );\r\n\r\n        minted[id - 1].owner = msg.sender;\r\n        minted[id-1].forSale = false;\r\n    }\r\n\r\n    function changePrice(uint256 id, uint256 newPrice) external returns (bool) {\r\n        require(newPrice > 0 ether, \"Ether too low!\");\r\n        require(msg.sender == minted[id - 1].owner, \"Operation Not Allowed!\");\r\n\r\n        minted[id - 1].cost = newPrice;\r\n        return true;\r\n    }\r\n\r\n    function payTo(address to, uint256 amount) internal {\r\n        (bool success, ) = payable(to).call{value: amount}(\"\");\r\n        require(success);\r\n    }\r\n\r\n    function tokenBalance(address account) external view returns (uint256) {\r\n        uint256 count = 0;\r\n        for(uint256 i = 1; i<=supply; i++){\r\n            if(account == minted[i - 1].owner){\r\n                count++;\r\n            }\r\n        }\r\n        return count;\r\n    }\r\n\r\n    function getAllNFTs() external view returns (TransactionStruct[] memory) {\r\n        return minted;\r\n    }\r\n\r\n    function getNFT(\r\n        uint256 id\r\n    ) external view returns (TransactionStruct memory) {\r\n        return minted[id - 1];\r\n    }\r\n\r\n    function getAllTransactions()\r\n        external\r\n        view\r\n        returns (TransactionStruct[] memory)\r\n    {\r\n        return transactions;\r\n    }\r\n\r\n    function getSaleStatus(uint256 id) public view returns (bool){\r\n        return minted[id-1].forSale;\r\n    }\r\n\r\n    function setSaleStatus(uint256 id) public returns (bool) {\r\n        bool status = minted[id-1].forSale = true;\r\n        return status;\r\n    }\r\n}\r\n ",
  "sourcePath": "D:\\dominionDAO\\src\\contracts\\nft.sol",
  "compiler": {
    "name": "solc",
    "version": "0.8.11+commit.d7f03943.Emscripten.clang"
  },
  "schemaVersion": "3.4.13",
  "updatedAt": "2023-04-29T18:08:23.064Z",
  "devdoc": {
    "kind": "dev",
    "methods": {
      "approve(address,uint256)": {
        "details": "See {IERC721-approve}."
      },
      "balanceOf(address)": {
        "details": "See {IERC721-balanceOf}."
      },
      "getApproved(uint256)": {
        "details": "See {IERC721-getApproved}."
      },
      "isApprovedForAll(address,address)": {
        "details": "See {IERC721-isApprovedForAll}."
      },
      "name()": {
        "details": "See {IERC721Metadata-name}."
      },
      "owner()": {
        "details": "Returns the address of the current owner."
      },
      "ownerOf(uint256)": {
        "details": "See {IERC721-ownerOf}."
      },
      "renounceOwnership()": {
        "details": "Leaves the contract without owner. It will not be possible to call `onlyOwner` functions anymore. Can only be called by the current owner. NOTE: Renouncing ownership will leave the contract without an owner, thereby removing any functionality that is only available to the owner."
      },
      "safeTransferFrom(address,address,uint256)": {
        "details": "See {IERC721-safeTransferFrom}."
      },
      "safeTransferFrom(address,address,uint256,bytes)": {
        "details": "See {IERC721-safeTransferFrom}."
      },
      "setApprovalForAll(address,bool)": {
        "details": "See {IERC721-setApprovalForAll}."
      },
      "supportsInterface(bytes4)": {
        "details": "See {IERC165-supportsInterface}."
      },
      "symbol()": {
        "details": "See {IERC721Metadata-symbol}."
      },
      "tokenByIndex(uint256)": {
        "details": "See {IERC721Enumerable-tokenByIndex}."
      },
      "tokenOfOwnerByIndex(address,uint256)": {
        "details": "See {IERC721Enumerable-tokenOfOwnerByIndex}."
      },
      "tokenURI(uint256)": {
        "details": "See {IERC721Metadata-tokenURI}."
      },
      "totalSupply()": {
        "details": "See {IERC721Enumerable-totalSupply}."
      },
      "transferFrom(address,address,uint256)": {
        "details": "See {IERC721-transferFrom}."
      },
      "transferOwnership(address)": {
        "details": "Transfers ownership of the contract to a new account (`newOwner`). Can only be called by the current owner."
      }
    },
    "version": 1
  },
  "userdoc": {
    "kind": "user",
    "methods": {},
    "version": 1
  }
}